{
  "abi": [
    {
      "inputs": [],
      "name": "getAuthoringMeta",
      "outputs": [
        {
          "internalType": "bytes",
          "name": "",
          "type": "bytes"
        }
      ],
      "stateMutability": "pure",
      "type": "function"
    }
  ],
  "bytecode": {
    "object": "0x608060405234801561001057600080fd5b506124d0806100206000396000f3fe608060405234801561001057600080fd5b506004361061002b5760003560e01c8063c316e48a14610030575b600080fd5b61003861004e565b6040516100459190611044565b60405180910390f35b606061005861005d565b905090565b604080516060818101835260008083526020830152918101829052600060405180610540016040528083815260200160405180606001604052807f737461636b0000000000000000000000000000000000000000000000000000008152602001601060ff16815260200160405180606001604052806028815260200161177060289139815250815260200160405180606001604052807f636f6e7374616e740000000000000000000000000000000000000000000000008152602001601060ff1681526020016040518060600160405280602781526020016118b160279139815250815260200160405180606001604052807f636f6e74657874000000000000000000000000000000000000000000000000008152602001602060ff1681526020016040518060a00160405280606781526020016115fe60679139815250815260200160405180606001604052807f68617368000000000000000000000000000000000000000000000000000000008152602001600060ff1681526020016040518060600160405280603e815260200161235d603e9139815250815260200160405180606001604052807f626c6f636b2d6e756d62657200000000000000000000000000000000000000008152602001600060ff1681526020016040518060400160405280601981526020017f5468652063757272656e7420626c6f636b206e756d6265722e00000000000000815250815250815260200160405180606001604052807f636861696e2d69640000000000000000000000000000000000000000000000008152602001600060ff1681526020016040518060400160405280601581526020017f5468652063757272656e7420636861696e2069642e0000000000000000000000815250815250815260200160405180606001604052807f6d61782d696e742d76616c7565000000000000000000000000000000000000008152602001600060ff1681526020016040518060600160405280603b8152602001611835603b9139815250815260200160405180606001604052807f6d61782d646563696d616c31382d76616c7565000000000000000000000000008152602001600060ff16815260200160405180608001604052806043815260200161149860439139815250815260200160405180606001604052807f626c6f636b2d74696d657374616d7000000000000000000000000000000000008152602001600060ff1681526020016040518060400160405280601c81526020017f5468652063757272656e7420626c6f636b2074696d657374616d702e00000000815250815250815260200160405180606001604052807f616e7900000000000000000000000000000000000000000000000000000000008152602001600060ff1681526020016040518060800160405280604581526020016114db60459139815250815260200160405180606001604052807f636f6e646974696f6e73000000000000000000000000000000000000000000008152602001601060ff16815260200160405180610140016040528061010181526020016113766101019139815250815260200160405180606001604052807f656e7375726500000000000000000000000000000000000000000000000000008152602001601060ff1681526020016040518060e0016040528060bf815260200161166560bf9139815250815260200160405180606001604052807f657175616c2d746f0000000000000000000000000000000000000000000000008152602001600060ff168152602001604051806060016040528060278152602001611c0b60279139815250815260200160405180606001604052807f65766572790000000000000000000000000000000000000000000000000000008152602001600060ff16815260200160405180608001604052806041815260200161187060419139815250815260200160405180606001604052807f677265617465722d7468616e00000000000000000000000000000000000000008152602001600060ff168152602001604051806080016040528060438152602001611da360439139815250815260200160405180606001604052807f677265617465722d7468616e2d6f722d657175616c2d746f00000000000000008152602001600060ff1681526020016040518060800160405280604f815260200161239b604f9139815250815260200160405180606001604052807f69660000000000000000000000000000000000000000000000000000000000008152602001600060ff1681526020016040518060a0016040528060758152602001611cc660759139815250815260200160405180606001604052807f69732d7a65726f000000000000000000000000000000000000000000000000008152602001600060ff16815260200160405180606001604052806021815260200161147760219139815250815260200160405180606001604052807f6c6573732d7468616e00000000000000000000000000000000000000000000008152602001600060ff16815260200160405180606001604052806040815260200161212260409139815250815260200160405180606001604052807f6c6573732d7468616e2d6f722d657175616c2d746f00000000000000000000008152602001600060ff1681526020016040518060800160405280604c8152602001611724604c9139815250815260200160405180606001604052807f646563696d616c31382d646976000000000000000000000000000000000000008152602001600060ff1681526020016040518060c00160405280608281526020016120a060829139815250815260200160405180606001604052807f646563696d616c31382d6d756c000000000000000000000000000000000000008152602001600060ff1681526020016040518060c0016040528060a0815260200161216260a09139815250815260200160405180606001604052807f646563696d616c31382d7363616c6531382d64796e616d6963000000000000008152602001603060ff1681526020016040518061014001604052806101018152602001611b0a6101019139815250815260200160405180606001604052807f646563696d616c31382d7363616c6531380000000000000000000000000000008152602001604060ff16815260200160405180610180016040528061015d815260200161194e61015d9139815250815260200160405180606001604052807f646563696d616c31382d7363616c652d6e0000000000000000000000000000008152602001604060ff16815260200160405180610180016040528061015b815260200161220261015b9139815250815260200160405180606001604052807f696e742d616464000000000000000000000000000000000000000000000000008152602001600060ff1681526020016040518060a00160405280607681526020016118d860769139815250815260200160405180606001604052807f646563696d616c31382d616464000000000000000000000000000000000000008152602001600060ff1681526020016040518060c0016040528060948152602001611c3260949139815250815260200160405180606001604052807f696e742d646976000000000000000000000000000000000000000000000000008152602001600060ff1681526020016040518060a001604052806064815260200161203c60649139815250815260200160405180606001604052807f696e742d657870000000000000000000000000000000000000000000000000008152602001600060ff1681526020016040518060c0016040528060a08152602001611de660a09139815250815260200160405180606001604052807f696e742d6d6178000000000000000000000000000000000000000000000000008152602001600060ff16815260200160405180608001604052806041815260200161133560419139815250815260200160405180606001604052807f646563696d616c31382d6d6178000000000000000000000000000000000000008152602001600060ff1681526020016040518060800160405280605f8152602001611520605f9139815250815260200160405180606001604052807f696e742d6d696e000000000000000000000000000000000000000000000000008152602001600060ff1681526020016040518060800160405280604181526020016112f460419139815250815260200160405180606001604052807f646563696d616c31382d6d696e000000000000000000000000000000000000008152602001600060ff1681526020016040518060800160405280605f8152602001611aab605f9139815250815260200160405180606001604052807f696e742d6d6f64000000000000000000000000000000000000000000000000008152602001600060ff1681526020016040518060a00160405280606481526020016123ea60649139815250815260200160405180606001604052807f696e742d6d756c000000000000000000000000000000000000000000000000008152602001600060ff1681526020016040518060c001604052806082815260200161244e60829139815250815260200160405180606001604052807f696e742d737562000000000000000000000000000000000000000000000000008152602001600060ff1681526020016040518060a00160405280607f815260200161157f607f9139815250815260200160405180606001604052807f646563696d616c31382d737562000000000000000000000000000000000000008152602001600060ff1681526020016040518060c00160405280609d8152602001611798609d9139815250815260200160405180606001604052807f67657400000000000000000000000000000000000000000000000000000000008152602001600060ff1681526020016040518060800160405280604281526020016110ff60429139815250815260200160405180606001604052807f73657400000000000000000000000000000000000000000000000000000000008152602001600060ff1681526020016040518060a0016040528060688152602001611d3b60689139815250815260200160405180606001604052807f756e69737761702d76322d616d6f756e742d696e0000000000000000000000008152602001601060ff168152602001604051806101e001604052806101b68152602001611e866101b69139815250815260200160405180606001604052807f756e69737761702d76322d616d6f756e742d6f757400000000000000000000008152602001601060ff168152602001604051806101e001604052806101b381526020016111416101b391399052905260298082526040519192508291610fc890839060200161105e565b60405160208183030381529060405294505050505090565b6000815180845260005b8181101561100657602081850181015186830182015201610fea565b5060006020828601015260207fffffffffffffffffffffffffffffffffffffffffffffffffffffffffffffffe0601f83011685010191505092915050565b6020815260006110576020830184610fe0565b9392505050565b60006020808301818452808551808352604092508286019150828160051b87010184880160005b838110156110f0578883037fffffffffffffffffffffffffffffffffffffffffffffffffffffffffffffffc00185528151805184528781015160ff168885015286015160608785018190526110dc81860183610fe0565b968901969450505090860190600101611085565b50909897505050505050505056fe4765747320612076616c75652066726f6d2073746f726167652e20546865206669727374206f706572616e6420697320746865206b657920746f206c6f6f6b75702e436f6d707574657320746865206d6178696d756d20616d6f756e74206f66206f757470757420746f6b656e732072656365697665642066726f6d206120676976656e20616d6f756e74206f6620696e70757420746f6b656e732066726f6d206120556e6973776170563220706169722e20496e7075742f6f757470757420746f6b656e20646972656374696f6e73206172652066726f6d20746865207065727370656374697665206f662074686520556e697377617020636f6e74726163742e2054686520666972737420696e7075742069732074686520666163746f727920616464726573732c20746865207365636f6e642069732074686520616d6f756e74206f6620696e70757420746f6b656e732c207468652074686972642069732074686520696e70757420746f6b656e20616464726573732c20616e642074686520666f7572746820697320746865206f757470757420746f6b656e20616464726573732e20496620746865206f706572616e64206973203120746865206c6173742074696d652074686520707269636573206368616e6765642077696c6c2062652072657475726e65642061732077656c6c2e46696e647320746865206d696e696d756d2076616c75652066726f6d20616c6c20696e70757473206173206e6f6e2d6e6567617469766520696e7465676572732e46696e647320746865206d6178696d756d2076616c75652066726f6d20616c6c20696e70757473206173206e6f6e2d6e6567617469766520696e7465676572732e54726561747320696e7075747320617320706169727769736520636f6e646974696f6e2f76616c75652070616972732e20546865206669727374206e6f6e7a65726f20636f6e646974696f6e27732076616c756520697320757365642e204966206e6f20636f6e646974696f6e7320617265206e6f6e7a65726f2c207468652065787072657373696f6e20726576657274732e20546865206f706572616e642063616e206265207573656420617320616e206572726f7220636f646520746f20646966666572656e7469617465206265747765656e206d756c7469706c6520636f6e646974696f6e7320696e207468652073616d652065787072657373696f6e2e312069662074686520696e70757420697320302c2030206f74686572776973652e546865206d6178696d756d20706f737369626c6520313820646563696d616c20666978656420706f696e742076616c75652e20726f7567686c7920312e31356537372e546865206669727374206e6f6e2d7a65726f2076616c7565206f7574206f6620616c6c20696e707574732c206f72203020696620657665727920696e70757420697320302e46696e647320746865206d6178696d756d2076616c75652066726f6d20616c6c20696e7075747320617320666978656420706f696e7420313820646563696d616c206e756d626572732028692e652e20276f6e65272069732031653138292e53756274726163747320616c6c20696e707574732066726f6d2074686520666972737420696e707574206173206e6f6e2d6e6567617469766520696e7465676572732e204572726f727320696620746865207375627472616374696f6e20776f756c6420726573756c7420696e2061206e656761746976652076616c75652e436f7069657320612076616c75652066726f6d2074686520636f6e746578742e20546865206669727374206f706572616e642069732074686520636f6e7465787420636f6c756d6e20616e64207365636f6e642069732074686520636f6e7465787420726f772e5265766572747320696620616e7920696e70757420697320302e20416c6c20696e70757473206172652065616765726c79206576616c756174656420746865726520617265206e6f206f7574707574732e20546865206f706572616e642063616e206265207573656420617320616e206572726f7220636f646520746f20646966666572656e7469617465206265747765656e206d756c7469706c6520636f6e646974696f6e7320696e207468652073616d652065787072657373696f6e2e312069662074686520666972737420696e707574206973206c657373207468616e206f7220657175616c20746f20746865207365636f6e6420696e7075742c2030206f74686572776973652e436f7069657320616e206578697374696e672076616c75652066726f6d2074686520737461636b2e53756274726163747320616c6c20696e707574732066726f6d2074686520666972737420696e70757420617320666978656420706f696e7420313820646563696d616c206e756d626572732028692e652e20276f6e65272069732031653138292e204572726f727320696620746865207375627472616374696f6e20776f756c6420726573756c7420696e2061206e656761746976652076616c75652e546865206d6178696d756d20706f737369626c65206e6f6e2d6e6567617469766520696e74656765722076616c75652e20325e323536202d20312e546865206c617374206e6f6e7a65726f2076616c7565206f7574206f6620616c6c20696e707574732c206f72203020696620616e7920696e70757420697320302e436f70696573206120636f6e7374616e742076616c7565206f6e746f2074686520737461636b2e4164647320616c6c20696e7075747320746f676574686572206173206e6f6e2d6e6567617469766520696e7465676572732e204572726f727320696620746865206164646974696f6e206578636565647320746865206d6178696d756d2076616c75652028726f7567686c7920312e3135653737292e5363616c657320616e20696e7075742076616c75652066726f6d20736f6d6520666978656420706f696e7420646563696d616c207363616c6520746f20313820646563696d616c20666978656420706f696e742e20546865206669727374206f706572616e6420697320746865207363616c6520746f207363616c652066726f6d2e20546865207365636f6e6420286f7074696f6e616c29206f706572616e6420636f6e74726f6c7320726f756e64696e672077686572652030202864656661756c742920726f756e647320646f776e20616e64203120726f756e64732075702e2054686520746869726420286f7074696f6e616c29206f706572616e6420636f6e74726f6c732073617475726174696f6e2077686572652030202864656661756c7429206572726f7273206f6e206f766572666c6f7720616e64203120736174757261746573206174206d61782d646563696d616c2d76616c75652e46696e647320746865206d696e696d756d2076616c75652066726f6d20616c6c20696e7075747320617320666978656420706f696e7420313820646563696d616c206e756d626572732028692e652e20276f6e65272069732031653138292e5363616c657320612076616c75652066726f6d20736f6d6520666978656420706f696e7420646563696d616c207363616c6520746f20313820646563696d616c20666978656420706f696e742e2054686520666972737420696e70757420697320746865207363616c6520746f207363616c652066726f6d20616e6420746865207365636f6e64206973207468652076616c756520746f207363616c652e205468652074776f206f7074696f6e616c206f706572616e647320636f6e74726f6c20726f756e64696e6720616e642073617475726174696f6e20726573706563746976656c79206173207065722060646563696d616c31382d7363616c653138602e3120696620616c6c20696e707574732061726520657175616c2c2030206f74686572776973652e4164647320616c6c20696e7075747320746f67657468657220617320666978656420706f696e7420313820646563696d616c206e756d626572732028692e652e20276f6e65272069732031653138292e204572726f727320696620746865206164646974696f6e206578636565647320746865206d6178696d756d2076616c75652028726f7567686c7920312e3135653737292e49662074686520666972737420696e707574206973206e6f6e7a65726f2c20746865207365636f6e6420696e70757420697320757365642e204f74686572776973652c2074686520746869726420696e70757420697320757365642e2049662069732065616765726c79206576616c75617465642e5365747320612076616c756520696e2073746f726167652e20546865206669727374206f706572616e6420697320746865206b657920746f2073657420616e6420746865207365636f6e64206f706572616e64206973207468652076616c756520746f207365742e312069662074686520666972737420696e7075742069732067726561746572207468616e20746865207365636f6e6420696e7075742c2030206f74686572776973652e5261697365732074686520666972737420696e70757420746f2074686520706f776572206f6620616c6c206f7468657220696e70757473206173206e6f6e2d6e6567617469766520696e7465676572732e204572726f727320696620746865206578706f6e656e74696174696f6e20776f756c642065786365656420746865206d6178696d756d2076616c75652028726f7567686c7920312e3135653737292e436f6d707574657320746865206d696e696d756d20616d6f756e74206f6620696e70757420746f6b656e7320726571756972656420746f20676574206120676976656e20616d6f756e74206f66206f757470757420746f6b656e732066726f6d206120556e6973776170563220706169722e20496e7075742f6f757470757420746f6b656e20646972656374696f6e73206172652066726f6d20746865207065727370656374697665206f662074686520556e697377617020636f6e74726163742e2054686520666972737420696e7075742069732074686520666163746f727920616464726573732c20746865207365636f6e642069732074686520616d6f756e74206f66206f757470757420746f6b656e732c207468652074686972642069732074686520696e70757420746f6b656e20616464726573732c20616e642074686520666f7572746820697320746865206f757470757420746f6b656e20616464726573732e20496620746865206f706572616e64206973203120746865206c6173742074696d652074686520707269636573206368616e6765642077696c6c2062652072657475726e65642061732077656c6c2e446976696465732074686520666972737420696e70757420627920616c6c206f7468657220696e70757473206173206e6f6e2d6e6567617469766520696e7465676572732e204572726f727320696620616e792064697669736f72206973207a65726f2e446976696465732074686520666972737420696e70757420627920616c6c206f7468657220696e7075747320617320666978656420706f696e7420313820646563696d616c206e756d626572732028692e652e20276f6e65272069732031653138292e204572726f727320696620616e792064697669736f72206973207a65726f2e312069662074686520666972737420696e707574206973206c657373207468616e20746865207365636f6e6420696e7075742c2030206f74686572776973652e4d756c7469706c69657320616c6c20696e7075747320746f67657468657220617320666978656420706f696e7420313820646563696d616c206e756d626572732028692e652e20276f6e65272069732031653138292e204572726f727320696620746865206d756c7469706c69636174696f6e206578636565647320746865206d6178696d756d2076616c75652028726f7567686c7920312e3135653737292e5363616c657320616e20696e7075742076616c75652066726f6d20313820646563696d616c20666978656420706f696e7420746f20736f6d65206f7468657220666978656420706f696e74207363616c65204e2e20546865206669727374206f706572616e6420697320746865207363616c6520746f207363616c6520746f2e20546865207365636f6e6420286f7074696f6e616c29206f706572616e6420636f6e74726f6c7320726f756e64696e672077686572652030202864656661756c742920726f756e647320646f776e20616e64203120726f756e64732075702e2054686520746869726420286f7074696f6e616c29206f706572616e6420636f6e74726f6c732073617475726174696f6e2077686572652030202864656661756c7429206572726f7273206f6e206f766572666c6f7720616e64203120736174757261746573206174206d61782d646563696d616c2d76616c75652e48617368657320616c6c20696e7075747320696e746f20612073696e676c6520333220627974652076616c7565207573696e67206b656363616b3235362e312069662074686520666972737420696e7075742069732067726561746572207468616e206f7220657175616c20746f20746865207365636f6e6420696e7075742c2030206f74686572776973652e4d6f64756c6f732074686520666972737420696e70757420627920616c6c206f7468657220696e70757473206173206e6f6e2d6e6567617469766520696e7465676572732e204572726f727320696620616e792064697669736f72206973207a65726f2e4d756c7469706c69657320616c6c20696e7075747320746f676574686572206173206e6f6e2d6e6567617469766520696e7465676572732e204572726f727320696620746865206d756c7469706c69636174696f6e206578636565647320746865206d6178696d756d2076616c75652028726f7567686c7920312e3135653737292e",
    "linkReferences": {}
  },
  "methodIdentifiers": {
    "getAuthoringMeta()": "c316e48a"
  },
  "id": 90
}