{
  "abi": [
    {
      "inputs": [
        {
          "components": [
            {
              "internalType": "address",
              "name": "deployer",
              "type": "address"
            },
            {
              "internalType": "bytes",
              "name": "meta",
              "type": "bytes"
            }
          ],
          "internalType": "struct DeployerDiscoverableMetaV2ConstructionConfig",
          "name": "config",
          "type": "tuple"
        }
      ],
      "stateMutability": "nonpayable",
      "type": "constructor"
    },
    {
      "inputs": [
        {
          "internalType": "address",
          "name": "receiver",
          "type": "address"
        },
        {
          "internalType": "address",
          "name": "token",
          "type": "address"
        },
        {
          "internalType": "uint256",
          "name": "amount",
          "type": "uint256"
        }
      ],
      "name": "ActiveDebt",
      "type": "error"
    },
    {
      "inputs": [
        {
          "internalType": "bytes32",
          "name": "result",
          "type": "bytes32"
        }
      ],
      "name": "FlashLenderCallbackFailed",
      "type": "error"
    },
    {
      "inputs": [
        {
          "internalType": "uint256",
          "name": "i",
          "type": "uint256"
        }
      ],
      "name": "InvalidSignature",
      "type": "error"
    },
    {
      "inputs": [
        {
          "internalType": "uint256",
          "name": "minimumInput",
          "type": "uint256"
        },
        {
          "internalType": "uint256",
          "name": "input",
          "type": "uint256"
        }
      ],
      "name": "MinimumInput",
      "type": "error"
    },
    {
      "inputs": [],
      "name": "NoOrders",
      "type": "error"
    },
    {
      "inputs": [
        {
          "internalType": "address",
          "name": "sender",
          "type": "address"
        },
        {
          "internalType": "address",
          "name": "owner",
          "type": "address"
        }
      ],
      "name": "NotOrderOwner",
      "type": "error"
    },
    {
      "inputs": [
        {
          "internalType": "bytes",
          "name": "unmeta",
          "type": "bytes"
        }
      ],
      "name": "NotRainMetaV1",
      "type": "error"
    },
    {
      "inputs": [
        {
          "internalType": "address",
          "name": "sender",
          "type": "address"
        }
      ],
      "name": "OrderNoHandleIO",
      "type": "error"
    },
    {
      "inputs": [
        {
          "internalType": "address",
          "name": "sender",
          "type": "address"
        }
      ],
      "name": "OrderNoInputs",
      "type": "error"
    },
    {
      "inputs": [
        {
          "internalType": "address",
          "name": "sender",
          "type": "address"
        }
      ],
      "name": "OrderNoOutputs",
      "type": "error"
    },
    {
      "inputs": [
        {
          "internalType": "address",
          "name": "sender",
          "type": "address"
        }
      ],
      "name": "OrderNoSources",
      "type": "error"
    },
    {
      "inputs": [],
      "name": "ReentrancyGuardReentrantCall",
      "type": "error"
    },
    {
      "inputs": [
        {
          "internalType": "address",
          "name": "owner",
          "type": "address"
        }
      ],
      "name": "SameOwner",
      "type": "error"
    },
    {
      "inputs": [
        {
          "internalType": "bytes",
          "name": "bytecode",
          "type": "bytes"
        },
        {
          "internalType": "uint256",
          "name": "sourceIndex",
          "type": "uint256"
        }
      ],
      "name": "SourceOffsetOutOfBounds",
      "type": "error"
    },
    {
      "inputs": [
        {
          "internalType": "uint8",
          "name": "aliceTokenDecimals",
          "type": "uint8"
        },
        {
          "internalType": "uint8",
          "name": "bobTokenDecimals",
          "type": "uint8"
        }
      ],
      "name": "TokenDecimalsMismatch",
      "type": "error"
    },
    {
      "inputs": [
        {
          "internalType": "address",
          "name": "aliceToken",
          "type": "address"
        },
        {
          "internalType": "address",
          "name": "bobToken",
          "type": "address"
        }
      ],
      "name": "TokenMismatch",
      "type": "error"
    },
    {
      "inputs": [
        {
          "internalType": "bytes32",
          "name": "expectedHash",
          "type": "bytes32"
        },
        {
          "internalType": "bytes32",
          "name": "actualHash",
          "type": "bytes32"
        }
      ],
      "name": "UnexpectedMetaHash",
      "type": "error"
    },
    {
      "inputs": [],
      "name": "ZeroAmount",
      "type": "error"
    },
    {
      "inputs": [
        {
          "internalType": "address",
          "name": "sender",
          "type": "address"
        },
        {
          "internalType": "address",
          "name": "token",
          "type": "address"
        },
        {
          "internalType": "uint256",
          "name": "vaultId",
          "type": "uint256"
        }
      ],
      "name": "ZeroDepositAmount",
      "type": "error"
    },
    {
      "inputs": [],
      "name": "ZeroMaximumInput",
      "type": "error"
    },
    {
      "inputs": [],
      "name": "ZeroReceiver",
      "type": "error"
    },
    {
      "inputs": [],
      "name": "ZeroToken",
      "type": "error"
    },
    {
      "inputs": [
        {
          "internalType": "address",
          "name": "sender",
          "type": "address"
        },
        {
          "internalType": "address",
          "name": "token",
          "type": "address"
        },
        {
          "internalType": "uint256",
          "name": "vaultId",
          "type": "uint256"
        }
      ],
      "name": "ZeroWithdrawTargetAmount",
      "type": "error"
    },
    {
      "anonymous": false,
      "inputs": [
        {
          "indexed": false,
          "internalType": "address",
          "name": "sender",
          "type": "address"
        },
        {
          "indexed": false,
          "internalType": "contract IExpressionDeployerV2",
          "name": "expressionDeployer",
          "type": "address"
        },
        {
          "components": [
            {
              "internalType": "address",
              "name": "owner",
              "type": "address"
            },
            {
              "internalType": "bool",
              "name": "handleIO",
              "type": "bool"
            },
            {
              "components": [
                {
                  "internalType": "contract IInterpreterV1",
                  "name": "interpreter",
                  "type": "address"
                },
                {
                  "internalType": "contract IInterpreterStoreV1",
                  "name": "store",
                  "type": "address"
                },
                {
                  "internalType": "address",
                  "name": "expression",
                  "type": "address"
                }
              ],
              "internalType": "struct Evaluable",
              "name": "evaluable",
              "type": "tuple"
            },
            {
              "components": [
                {
                  "internalType": "address",
                  "name": "token",
                  "type": "address"
                },
                {
                  "internalType": "uint8",
                  "name": "decimals",
                  "type": "uint8"
                },
                {
                  "internalType": "uint256",
                  "name": "vaultId",
                  "type": "uint256"
                }
              ],
              "internalType": "struct IO[]",
              "name": "validInputs",
              "type": "tuple[]"
            },
            {
              "components": [
                {
                  "internalType": "address",
                  "name": "token",
                  "type": "address"
                },
                {
                  "internalType": "uint8",
                  "name": "decimals",
                  "type": "uint8"
                },
                {
                  "internalType": "uint256",
                  "name": "vaultId",
                  "type": "uint256"
                }
              ],
              "internalType": "struct IO[]",
              "name": "validOutputs",
              "type": "tuple[]"
            }
          ],
          "indexed": false,
          "internalType": "struct Order",
          "name": "order",
          "type": "tuple"
        },
        {
          "indexed": false,
          "internalType": "bytes32",
          "name": "orderHash",
          "type": "bytes32"
        }
      ],
      "name": "AddOrder",
      "type": "event"
    },
    {
      "anonymous": false,
      "inputs": [
        {
          "indexed": false,
          "internalType": "address",
          "name": "sender",
          "type": "address"
        },
        {
          "components": [
            {
              "internalType": "uint256",
              "name": "aliceOutput",
              "type": "uint256"
            },
            {
              "internalType": "uint256",
              "name": "bobOutput",
              "type": "uint256"
            },
            {
              "internalType": "uint256",
              "name": "aliceInput",
              "type": "uint256"
            },
            {
              "internalType": "uint256",
              "name": "bobInput",
              "type": "uint256"
            }
          ],
          "indexed": false,
          "internalType": "struct ClearStateChange",
          "name": "clearStateChange",
          "type": "tuple"
        }
      ],
      "name": "AfterClear",
      "type": "event"
    },
    {
      "anonymous": false,
      "inputs": [
        {
          "indexed": false,
          "internalType": "address",
          "name": "sender",
          "type": "address"
        },
        {
          "components": [
            {
              "internalType": "address",
              "name": "owner",
              "type": "address"
            },
            {
              "internalType": "bool",
              "name": "handleIO",
              "type": "bool"
            },
            {
              "components": [
                {
                  "internalType": "contract IInterpreterV1",
                  "name": "interpreter",
                  "type": "address"
                },
                {
                  "internalType": "contract IInterpreterStoreV1",
                  "name": "store",
                  "type": "address"
                },
                {
                  "internalType": "address",
                  "name": "expression",
                  "type": "address"
                }
              ],
              "internalType": "struct Evaluable",
              "name": "evaluable",
              "type": "tuple"
            },
            {
              "components": [
                {
                  "internalType": "address",
                  "name": "token",
                  "type": "address"
                },
                {
                  "internalType": "uint8",
                  "name": "decimals",
                  "type": "uint8"
                },
                {
                  "internalType": "uint256",
                  "name": "vaultId",
                  "type": "uint256"
                }
              ],
              "internalType": "struct IO[]",
              "name": "validInputs",
              "type": "tuple[]"
            },
            {
              "components": [
                {
                  "internalType": "address",
                  "name": "token",
                  "type": "address"
                },
                {
                  "internalType": "uint8",
                  "name": "decimals",
                  "type": "uint8"
                },
                {
                  "internalType": "uint256",
                  "name": "vaultId",
                  "type": "uint256"
                }
              ],
              "internalType": "struct IO[]",
              "name": "validOutputs",
              "type": "tuple[]"
            }
          ],
          "indexed": false,
          "internalType": "struct Order",
          "name": "alice",
          "type": "tuple"
        },
        {
          "components": [
            {
              "internalType": "address",
              "name": "owner",
              "type": "address"
            },
            {
              "internalType": "bool",
              "name": "handleIO",
              "type": "bool"
            },
            {
              "components": [
                {
                  "internalType": "contract IInterpreterV1",
                  "name": "interpreter",
                  "type": "address"
                },
                {
                  "internalType": "contract IInterpreterStoreV1",
                  "name": "store",
                  "type": "address"
                },
                {
                  "internalType": "address",
                  "name": "expression",
                  "type": "address"
                }
              ],
              "internalType": "struct Evaluable",
              "name": "evaluable",
              "type": "tuple"
            },
            {
              "components": [
                {
                  "internalType": "address",
                  "name": "token",
                  "type": "address"
                },
                {
                  "internalType": "uint8",
                  "name": "decimals",
                  "type": "uint8"
                },
                {
                  "internalType": "uint256",
                  "name": "vaultId",
                  "type": "uint256"
                }
              ],
              "internalType": "struct IO[]",
              "name": "validInputs",
              "type": "tuple[]"
            },
            {
              "components": [
                {
                  "internalType": "address",
                  "name": "token",
                  "type": "address"
                },
                {
                  "internalType": "uint8",
                  "name": "decimals",
                  "type": "uint8"
                },
                {
                  "internalType": "uint256",
                  "name": "vaultId",
                  "type": "uint256"
                }
              ],
              "internalType": "struct IO[]",
              "name": "validOutputs",
              "type": "tuple[]"
            }
          ],
          "indexed": false,
          "internalType": "struct Order",
          "name": "bob",
          "type": "tuple"
        },
        {
          "components": [
            {
              "internalType": "uint256",
              "name": "aliceInputIOIndex",
              "type": "uint256"
            },
            {
              "internalType": "uint256",
              "name": "aliceOutputIOIndex",
              "type": "uint256"
            },
            {
              "internalType": "uint256",
              "name": "bobInputIOIndex",
              "type": "uint256"
            },
            {
              "internalType": "uint256",
              "name": "bobOutputIOIndex",
              "type": "uint256"
            },
            {
              "internalType": "uint256",
              "name": "aliceBountyVaultId",
              "type": "uint256"
            },
            {
              "internalType": "uint256",
              "name": "bobBountyVaultId",
              "type": "uint256"
            }
          ],
          "indexed": false,
          "internalType": "struct ClearConfig",
          "name": "clearConfig",
          "type": "tuple"
        }
      ],
      "name": "Clear",
      "type": "event"
    },
    {
      "anonymous": false,
      "inputs": [
        {
          "indexed": false,
          "internalType": "address",
          "name": "sender",
          "type": "address"
        },
        {
          "indexed": false,
          "internalType": "uint256[][]",
          "name": "context",
          "type": "uint256[][]"
        }
      ],
      "name": "Context",
      "type": "event"
    },
    {
      "anonymous": false,
      "inputs": [
        {
          "indexed": false,
          "internalType": "address",
          "name": "sender",
          "type": "address"
        },
        {
          "indexed": false,
          "internalType": "address",
          "name": "token",
          "type": "address"
        },
        {
          "indexed": false,
          "internalType": "uint256",
          "name": "vaultId",
          "type": "uint256"
        },
        {
          "indexed": false,
          "internalType": "uint256",
          "name": "amount",
          "type": "uint256"
        }
      ],
      "name": "Deposit",
      "type": "event"
    },
    {
      "anonymous": false,
      "inputs": [
        {
          "indexed": false,
          "internalType": "address",
          "name": "sender",
          "type": "address"
        },
        {
          "indexed": false,
          "internalType": "uint256",
          "name": "subject",
          "type": "uint256"
        },
        {
          "indexed": false,
          "internalType": "bytes",
          "name": "meta",
          "type": "bytes"
        }
      ],
      "name": "MetaV1",
      "type": "event"
    },
    {
      "anonymous": false,
      "inputs": [
        {
          "indexed": false,
          "internalType": "address",
          "name": "sender",
          "type": "address"
        },
        {
          "indexed": false,
          "internalType": "address",
          "name": "owner",
          "type": "address"
        },
        {
          "indexed": false,
          "internalType": "bytes32",
          "name": "orderHash",
          "type": "bytes32"
        }
      ],
      "name": "OrderExceedsMaxRatio",
      "type": "event"
    },
    {
      "anonymous": false,
      "inputs": [
        {
          "indexed": false,
          "internalType": "address",
          "name": "sender",
          "type": "address"
        },
        {
          "indexed": false,
          "internalType": "address",
          "name": "owner",
          "type": "address"
        },
        {
          "indexed": false,
          "internalType": "bytes32",
          "name": "orderHash",
          "type": "bytes32"
        }
      ],
      "name": "OrderNotFound",
      "type": "event"
    },
    {
      "anonymous": false,
      "inputs": [
        {
          "indexed": false,
          "internalType": "address",
          "name": "sender",
          "type": "address"
        },
        {
          "indexed": false,
          "internalType": "address",
          "name": "owner",
          "type": "address"
        },
        {
          "indexed": false,
          "internalType": "bytes32",
          "name": "orderHash",
          "type": "bytes32"
        }
      ],
      "name": "OrderZeroAmount",
      "type": "event"
    },
    {
      "anonymous": false,
      "inputs": [
        {
          "indexed": false,
          "internalType": "address",
          "name": "sender",
          "type": "address"
        },
        {
          "components": [
            {
              "internalType": "address",
              "name": "owner",
              "type": "address"
            },
            {
              "internalType": "bool",
              "name": "handleIO",
              "type": "bool"
            },
            {
              "components": [
                {
                  "internalType": "contract IInterpreterV1",
                  "name": "interpreter",
                  "type": "address"
                },
                {
                  "internalType": "contract IInterpreterStoreV1",
                  "name": "store",
                  "type": "address"
                },
                {
                  "internalType": "address",
                  "name": "expression",
                  "type": "address"
                }
              ],
              "internalType": "struct Evaluable",
              "name": "evaluable",
              "type": "tuple"
            },
            {
              "components": [
                {
                  "internalType": "address",
                  "name": "token",
                  "type": "address"
                },
                {
                  "internalType": "uint8",
                  "name": "decimals",
                  "type": "uint8"
                },
                {
                  "internalType": "uint256",
                  "name": "vaultId",
                  "type": "uint256"
                }
              ],
              "internalType": "struct IO[]",
              "name": "validInputs",
              "type": "tuple[]"
            },
            {
              "components": [
                {
                  "internalType": "address",
                  "name": "token",
                  "type": "address"
                },
                {
                  "internalType": "uint8",
                  "name": "decimals",
                  "type": "uint8"
                },
                {
                  "internalType": "uint256",
                  "name": "vaultId",
                  "type": "uint256"
                }
              ],
              "internalType": "struct IO[]",
              "name": "validOutputs",
              "type": "tuple[]"
            }
          ],
          "indexed": false,
          "internalType": "struct Order",
          "name": "order",
          "type": "tuple"
        },
        {
          "indexed": false,
          "internalType": "bytes32",
          "name": "orderHash",
          "type": "bytes32"
        }
      ],
      "name": "RemoveOrder",
      "type": "event"
    },
    {
      "anonymous": false,
      "inputs": [
        {
          "indexed": false,
          "internalType": "address",
          "name": "sender",
          "type": "address"
        },
        {
          "components": [
            {
              "components": [
                {
                  "internalType": "address",
                  "name": "owner",
                  "type": "address"
                },
                {
                  "internalType": "bool",
                  "name": "handleIO",
                  "type": "bool"
                },
                {
                  "components": [
                    {
                      "internalType": "contract IInterpreterV1",
                      "name": "interpreter",
                      "type": "address"
                    },
                    {
                      "internalType": "contract IInterpreterStoreV1",
                      "name": "store",
                      "type": "address"
                    },
                    {
                      "internalType": "address",
                      "name": "expression",
                      "type": "address"
                    }
                  ],
                  "internalType": "struct Evaluable",
                  "name": "evaluable",
                  "type": "tuple"
                },
                {
                  "components": [
                    {
                      "internalType": "address",
                      "name": "token",
                      "type": "address"
                    },
                    {
                      "internalType": "uint8",
                      "name": "decimals",
                      "type": "uint8"
                    },
                    {
                      "internalType": "uint256",
                      "name": "vaultId",
                      "type": "uint256"
                    }
                  ],
                  "internalType": "struct IO[]",
                  "name": "validInputs",
                  "type": "tuple[]"
                },
                {
                  "components": [
                    {
                      "internalType": "address",
                      "name": "token",
                      "type": "address"
                    },
                    {
                      "internalType": "uint8",
                      "name": "decimals",
                      "type": "uint8"
                    },
                    {
                      "internalType": "uint256",
                      "name": "vaultId",
                      "type": "uint256"
                    }
                  ],
                  "internalType": "struct IO[]",
                  "name": "validOutputs",
                  "type": "tuple[]"
                }
              ],
              "internalType": "struct Order",
              "name": "order",
              "type": "tuple"
            },
            {
              "internalType": "uint256",
              "name": "inputIOIndex",
              "type": "uint256"
            },
            {
              "internalType": "uint256",
              "name": "outputIOIndex",
              "type": "uint256"
            },
            {
              "components": [
                {
                  "internalType": "address",
                  "name": "signer",
                  "type": "address"
                },
                {
                  "internalType": "uint256[]",
                  "name": "context",
                  "type": "uint256[]"
                },
                {
                  "internalType": "bytes",
                  "name": "signature",
                  "type": "bytes"
                }
              ],
              "internalType": "struct SignedContextV1[]",
              "name": "signedContext",
              "type": "tuple[]"
            }
          ],
          "indexed": false,
          "internalType": "struct TakeOrderConfig",
          "name": "config",
          "type": "tuple"
        },
        {
          "indexed": false,
          "internalType": "uint256",
          "name": "input",
          "type": "uint256"
        },
        {
          "indexed": false,
          "internalType": "uint256",
          "name": "output",
          "type": "uint256"
        }
      ],
      "name": "TakeOrder",
      "type": "event"
    },
    {
      "anonymous": false,
      "inputs": [
        {
          "indexed": false,
          "internalType": "address",
          "name": "sender",
          "type": "address"
        },
        {
          "indexed": false,
          "internalType": "address",
          "name": "token",
          "type": "address"
        },
        {
          "indexed": false,
          "internalType": "uint256",
          "name": "vaultId",
          "type": "uint256"
        },
        {
          "indexed": false,
          "internalType": "uint256",
          "name": "targetAmount",
          "type": "uint256"
        },
        {
          "indexed": false,
          "internalType": "uint256",
          "name": "amount",
          "type": "uint256"
        }
      ],
      "name": "Withdraw",
      "type": "event"
    },
    {
      "inputs": [
        {
          "components": [
            {
              "components": [
                {
                  "internalType": "address",
                  "name": "token",
                  "type": "address"
                },
                {
                  "internalType": "uint8",
                  "name": "decimals",
                  "type": "uint8"
                },
                {
                  "internalType": "uint256",
                  "name": "vaultId",
                  "type": "uint256"
                }
              ],
              "internalType": "struct IO[]",
              "name": "validInputs",
              "type": "tuple[]"
            },
            {
              "components": [
                {
                  "internalType": "address",
                  "name": "token",
                  "type": "address"
                },
                {
                  "internalType": "uint8",
                  "name": "decimals",
                  "type": "uint8"
                },
                {
                  "internalType": "uint256",
                  "name": "vaultId",
                  "type": "uint256"
                }
              ],
              "internalType": "struct IO[]",
              "name": "validOutputs",
              "type": "tuple[]"
            },
            {
              "components": [
                {
                  "internalType": "contract IExpressionDeployerV2",
                  "name": "deployer",
                  "type": "address"
                },
                {
                  "internalType": "bytes",
                  "name": "bytecode",
                  "type": "bytes"
                },
                {
                  "internalType": "uint256[]",
                  "name": "constants",
                  "type": "uint256[]"
                }
              ],
              "internalType": "struct EvaluableConfigV2",
              "name": "evaluableConfig",
              "type": "tuple"
            },
            {
              "internalType": "bytes",
              "name": "meta",
              "type": "bytes"
            }
          ],
          "internalType": "struct OrderConfigV2",
          "name": "config",
          "type": "tuple"
        }
      ],
      "name": "addOrder",
      "outputs": [
        {
          "internalType": "bool",
          "name": "stateChanged",
          "type": "bool"
        }
      ],
      "stateMutability": "nonpayable",
      "type": "function"
    },
    {
      "inputs": [
        {
          "components": [
            {
              "internalType": "address",
              "name": "owner",
              "type": "address"
            },
            {
              "internalType": "bool",
              "name": "handleIO",
              "type": "bool"
            },
            {
              "components": [
                {
                  "internalType": "contract IInterpreterV1",
                  "name": "interpreter",
                  "type": "address"
                },
                {
                  "internalType": "contract IInterpreterStoreV1",
                  "name": "store",
                  "type": "address"
                },
                {
                  "internalType": "address",
                  "name": "expression",
                  "type": "address"
                }
              ],
              "internalType": "struct Evaluable",
              "name": "evaluable",
              "type": "tuple"
            },
            {
              "components": [
                {
                  "internalType": "address",
                  "name": "token",
                  "type": "address"
                },
                {
                  "internalType": "uint8",
                  "name": "decimals",
                  "type": "uint8"
                },
                {
                  "internalType": "uint256",
                  "name": "vaultId",
                  "type": "uint256"
                }
              ],
              "internalType": "struct IO[]",
              "name": "validInputs",
              "type": "tuple[]"
            },
            {
              "components": [
                {
                  "internalType": "address",
                  "name": "token",
                  "type": "address"
                },
                {
                  "internalType": "uint8",
                  "name": "decimals",
                  "type": "uint8"
                },
                {
                  "internalType": "uint256",
                  "name": "vaultId",
                  "type": "uint256"
                }
              ],
              "internalType": "struct IO[]",
              "name": "validOutputs",
              "type": "tuple[]"
            }
          ],
          "internalType": "struct Order",
          "name": "alice",
          "type": "tuple"
        },
        {
          "components": [
            {
              "internalType": "address",
              "name": "owner",
              "type": "address"
            },
            {
              "internalType": "bool",
              "name": "handleIO",
              "type": "bool"
            },
            {
              "components": [
                {
                  "internalType": "contract IInterpreterV1",
                  "name": "interpreter",
                  "type": "address"
                },
                {
                  "internalType": "contract IInterpreterStoreV1",
                  "name": "store",
                  "type": "address"
                },
                {
                  "internalType": "address",
                  "name": "expression",
                  "type": "address"
                }
              ],
              "internalType": "struct Evaluable",
              "name": "evaluable",
              "type": "tuple"
            },
            {
              "components": [
                {
                  "internalType": "address",
                  "name": "token",
                  "type": "address"
                },
                {
                  "internalType": "uint8",
                  "name": "decimals",
                  "type": "uint8"
                },
                {
                  "internalType": "uint256",
                  "name": "vaultId",
                  "type": "uint256"
                }
              ],
              "internalType": "struct IO[]",
              "name": "validInputs",
              "type": "tuple[]"
            },
            {
              "components": [
                {
                  "internalType": "address",
                  "name": "token",
                  "type": "address"
                },
                {
                  "internalType": "uint8",
                  "name": "decimals",
                  "type": "uint8"
                },
                {
                  "internalType": "uint256",
                  "name": "vaultId",
                  "type": "uint256"
                }
              ],
              "internalType": "struct IO[]",
              "name": "validOutputs",
              "type": "tuple[]"
            }
          ],
          "internalType": "struct Order",
          "name": "bob",
          "type": "tuple"
        },
        {
          "components": [
            {
              "internalType": "uint256",
              "name": "aliceInputIOIndex",
              "type": "uint256"
            },
            {
              "internalType": "uint256",
              "name": "aliceOutputIOIndex",
              "type": "uint256"
            },
            {
              "internalType": "uint256",
              "name": "bobInputIOIndex",
              "type": "uint256"
            },
            {
              "internalType": "uint256",
              "name": "bobOutputIOIndex",
              "type": "uint256"
            },
            {
              "internalType": "uint256",
              "name": "aliceBountyVaultId",
              "type": "uint256"
            },
            {
              "internalType": "uint256",
              "name": "bobBountyVaultId",
              "type": "uint256"
            }
          ],
          "internalType": "struct ClearConfig",
          "name": "clearConfig",
          "type": "tuple"
        },
        {
          "components": [
            {
              "internalType": "address",
              "name": "signer",
              "type": "address"
            },
            {
              "internalType": "uint256[]",
              "name": "context",
              "type": "uint256[]"
            },
            {
              "internalType": "bytes",
              "name": "signature",
              "type": "bytes"
            }
          ],
          "internalType": "struct SignedContextV1[]",
          "name": "aliceSignedContext",
          "type": "tuple[]"
        },
        {
          "components": [
            {
              "internalType": "address",
              "name": "signer",
              "type": "address"
            },
            {
              "internalType": "uint256[]",
              "name": "context",
              "type": "uint256[]"
            },
            {
              "internalType": "bytes",
              "name": "signature",
              "type": "bytes"
            }
          ],
          "internalType": "struct SignedContextV1[]",
          "name": "bobSignedContext",
          "type": "tuple[]"
        }
      ],
      "name": "clear",
      "outputs": [],
      "stateMutability": "nonpayable",
      "type": "function"
    },
    {
      "inputs": [
        {
          "internalType": "address",
          "name": "token",
          "type": "address"
        },
        {
          "internalType": "uint256",
          "name": "vaultId",
          "type": "uint256"
        },
        {
          "internalType": "uint256",
          "name": "amount",
          "type": "uint256"
        }
      ],
      "name": "deposit",
      "outputs": [],
      "stateMutability": "nonpayable",
      "type": "function"
    },
    {
      "inputs": [
        {
          "internalType": "address",
          "name": "",
          "type": "address"
        },
        {
          "internalType": "uint256",
          "name": "",
          "type": "uint256"
        }
      ],
      "name": "flashFee",
      "outputs": [
        {
          "internalType": "uint256",
          "name": "",
          "type": "uint256"
        }
      ],
      "stateMutability": "pure",
      "type": "function"
    },
    {
      "inputs": [
        {
          "internalType": "contract IERC3156FlashBorrower",
          "name": "receiver",
          "type": "address"
        },
        {
          "internalType": "address",
          "name": "token",
          "type": "address"
        },
        {
          "internalType": "uint256",
          "name": "amount",
          "type": "uint256"
        },
        {
          "internalType": "bytes",
          "name": "data",
          "type": "bytes"
        }
      ],
      "name": "flashLoan",
      "outputs": [
        {
          "internalType": "bool",
          "name": "",
          "type": "bool"
        }
      ],
      "stateMutability": "nonpayable",
      "type": "function"
    },
    {
      "inputs": [
        {
          "internalType": "address",
          "name": "token",
          "type": "address"
        }
      ],
      "name": "maxFlashLoan",
      "outputs": [
        {
          "internalType": "uint256",
          "name": "",
          "type": "uint256"
        }
      ],
      "stateMutability": "view",
      "type": "function"
    },
    {
      "inputs": [
        {
          "internalType": "bytes[]",
          "name": "data",
          "type": "bytes[]"
        }
      ],
      "name": "multicall",
      "outputs": [
        {
          "internalType": "bytes[]",
          "name": "results",
          "type": "bytes[]"
        }
      ],
      "stateMutability": "nonpayable",
      "type": "function"
    },
    {
      "inputs": [
        {
          "internalType": "bytes32",
          "name": "orderHash",
          "type": "bytes32"
        }
      ],
      "name": "orderExists",
      "outputs": [
        {
          "internalType": "bool",
          "name": "",
          "type": "bool"
        }
      ],
      "stateMutability": "view",
      "type": "function"
    },
    {
      "inputs": [
        {
          "components": [
            {
              "internalType": "address",
              "name": "owner",
              "type": "address"
            },
            {
              "internalType": "bool",
              "name": "handleIO",
              "type": "bool"
            },
            {
              "components": [
                {
                  "internalType": "contract IInterpreterV1",
                  "name": "interpreter",
                  "type": "address"
                },
                {
                  "internalType": "contract IInterpreterStoreV1",
                  "name": "store",
                  "type": "address"
                },
                {
                  "internalType": "address",
                  "name": "expression",
                  "type": "address"
                }
              ],
              "internalType": "struct Evaluable",
              "name": "evaluable",
              "type": "tuple"
            },
            {
              "components": [
                {
                  "internalType": "address",
                  "name": "token",
                  "type": "address"
                },
                {
                  "internalType": "uint8",
                  "name": "decimals",
                  "type": "uint8"
                },
                {
                  "internalType": "uint256",
                  "name": "vaultId",
                  "type": "uint256"
                }
              ],
              "internalType": "struct IO[]",
              "name": "validInputs",
              "type": "tuple[]"
            },
            {
              "components": [
                {
                  "internalType": "address",
                  "name": "token",
                  "type": "address"
                },
                {
                  "internalType": "uint8",
                  "name": "decimals",
                  "type": "uint8"
                },
                {
                  "internalType": "uint256",
                  "name": "vaultId",
                  "type": "uint256"
                }
              ],
              "internalType": "struct IO[]",
              "name": "validOutputs",
              "type": "tuple[]"
            }
          ],
          "internalType": "struct Order",
          "name": "order",
          "type": "tuple"
        }
      ],
      "name": "removeOrder",
      "outputs": [
        {
          "internalType": "bool",
          "name": "stateChanged",
          "type": "bool"
        }
      ],
      "stateMutability": "nonpayable",
      "type": "function"
    },
    {
      "inputs": [
        {
          "components": [
            {
              "internalType": "uint256",
              "name": "minimumInput",
              "type": "uint256"
            },
            {
              "internalType": "uint256",
              "name": "maximumInput",
              "type": "uint256"
            },
            {
              "internalType": "uint256",
              "name": "maximumIORatio",
              "type": "uint256"
            },
            {
              "components": [
                {
                  "components": [
                    {
                      "internalType": "address",
                      "name": "owner",
                      "type": "address"
                    },
                    {
                      "internalType": "bool",
                      "name": "handleIO",
                      "type": "bool"
                    },
                    {
                      "components": [
                        {
                          "internalType": "contract IInterpreterV1",
                          "name": "interpreter",
                          "type": "address"
                        },
                        {
                          "internalType": "contract IInterpreterStoreV1",
                          "name": "store",
                          "type": "address"
                        },
                        {
                          "internalType": "address",
                          "name": "expression",
                          "type": "address"
                        }
                      ],
                      "internalType": "struct Evaluable",
                      "name": "evaluable",
                      "type": "tuple"
                    },
                    {
                      "components": [
                        {
                          "internalType": "address",
                          "name": "token",
                          "type": "address"
                        },
                        {
                          "internalType": "uint8",
                          "name": "decimals",
                          "type": "uint8"
                        },
                        {
                          "internalType": "uint256",
                          "name": "vaultId",
                          "type": "uint256"
                        }
                      ],
                      "internalType": "struct IO[]",
                      "name": "validInputs",
                      "type": "tuple[]"
                    },
                    {
                      "components": [
                        {
                          "internalType": "address",
                          "name": "token",
                          "type": "address"
                        },
                        {
                          "internalType": "uint8",
                          "name": "decimals",
                          "type": "uint8"
                        },
                        {
                          "internalType": "uint256",
                          "name": "vaultId",
                          "type": "uint256"
                        }
                      ],
                      "internalType": "struct IO[]",
                      "name": "validOutputs",
                      "type": "tuple[]"
                    }
                  ],
                  "internalType": "struct Order",
                  "name": "order",
                  "type": "tuple"
                },
                {
                  "internalType": "uint256",
                  "name": "inputIOIndex",
                  "type": "uint256"
                },
                {
                  "internalType": "uint256",
                  "name": "outputIOIndex",
                  "type": "uint256"
                },
                {
                  "components": [
                    {
                      "internalType": "address",
                      "name": "signer",
                      "type": "address"
                    },
                    {
                      "internalType": "uint256[]",
                      "name": "context",
                      "type": "uint256[]"
                    },
                    {
                      "internalType": "bytes",
                      "name": "signature",
                      "type": "bytes"
                    }
                  ],
                  "internalType": "struct SignedContextV1[]",
                  "name": "signedContext",
                  "type": "tuple[]"
                }
              ],
              "internalType": "struct TakeOrderConfig[]",
              "name": "orders",
              "type": "tuple[]"
            },
            {
              "internalType": "bytes",
              "name": "data",
              "type": "bytes"
            }
          ],
          "internalType": "struct TakeOrdersConfigV2",
          "name": "config",
          "type": "tuple"
        }
      ],
      "name": "takeOrders",
      "outputs": [
        {
          "internalType": "uint256",
          "name": "totalTakerInput",
          "type": "uint256"
        },
        {
          "internalType": "uint256",
          "name": "totalTakerOutput",
          "type": "uint256"
        }
      ],
      "stateMutability": "nonpayable",
      "type": "function"
    },
    {
      "inputs": [
        {
          "internalType": "address",
          "name": "owner",
          "type": "address"
        },
        {
          "internalType": "address",
          "name": "token",
          "type": "address"
        },
        {
          "internalType": "uint256",
          "name": "vaultId",
          "type": "uint256"
        }
      ],
      "name": "vaultBalance",
      "outputs": [
        {
          "internalType": "uint256",
          "name": "",
          "type": "uint256"
        }
      ],
      "stateMutability": "view",
      "type": "function"
    },
    {
      "inputs": [
        {
          "internalType": "address",
          "name": "token",
          "type": "address"
        },
        {
          "internalType": "uint256",
          "name": "vaultId",
          "type": "uint256"
        },
        {
          "internalType": "uint256",
          "name": "targetAmount",
          "type": "uint256"
        }
      ],
      "name": "withdraw",
      "outputs": [],
      "stateMutability": "nonpayable",
      "type": "function"
    }
  ],
  "bytecode": {
    "object": "0x6080604052600180546001600160a01b031990811690915560028054909116905560006003553480156200003257600080fd5b5060405162006279380380620062798339810160408190526200005591620002d5565b600160005560208101517f1317ffd909f4ca1cd6402c7dd02501ba5965a5b8787a9627cde7b5f3f8f6f84090829062000090908390620000e7565b60208101516040517fbea766d03fa1efd3f81cc8634d08320bc62bb0ed9234ac59bbaafa5893fb6b1391620000c99133913091620003e3565b60405180910390a18051620000de906200012e565b505050620004f9565b805160208201208281146200011e5760405163074fe10f60e41b815260048101849052602481018290526044015b60405180910390fd5b6200012982620001c5565b505050565b60408051600080825260208201818152828401938490526331a66b6560e01b90935291829182916001600160a01b038616916331a66b65916200017691906044820162000452565b6060604051808303816000875af115801562000196573d6000803e3d6000fd5b505050506040513d601f19601f82011682018060405250810190620001bc919062000489565b50505050505050565b620001d081620001f5565b620001f25780604051630c89984b60e31b8152600401620001159190620004dd565b50565b60006008825110156200020a57506000919050565b50600801516001600160401b031667ff0a89c674ee78741490565b634e487b7160e01b600052604160045260246000fd5b604080519081016001600160401b038111828210171562000260576200026062000225565b60405290565b604051601f8201601f191681016001600160401b038111828210171562000291576200029162000225565b604052919050565b6001600160a01b0381168114620001f257600080fd5b60005b83811015620002cc578181015183820152602001620002b2565b50506000910152565b60006020808385031215620002e957600080fd5b82516001600160401b03808211156200030157600080fd5b90840190604082870312156200031657600080fd5b620003206200023b565b82516200032d8162000299565b815282840151828111156200034157600080fd5b80840193505086601f8401126200035757600080fd5b8251828111156200036c576200036c62000225565b62000380601f8201601f1916860162000266565b925080835287858286010111156200039757600080fd5b620003a881868501878701620002af565b5092830152509392505050565b60008151808452620003cf816020860160208601620002af565b601f01601f19169290920160200192915050565b60018060a01b03841681528260208201526060604082015260006200040c6060830184620003b5565b95945050505050565b600081518084526020808501945080840160005b83811015620004475781518752958201959082019060010162000429565b509495945050505050565b606081526000606082015260806020820152600062000475608083018562000415565b82810360408401526200040c818562000415565b6000806000606084860312156200049f57600080fd5b8351620004ac8162000299565b6020850151909350620004bf8162000299565b6040850151909250620004d28162000299565b809150509250925092565b602081526000620004f26020830184620003b5565b9392505050565b615d7080620005096000396000f3fe608060405234801561001057600080fd5b50600436106100d45760003560e01c80639e18968b11610081578063d97b2e481161005b578063d97b2e48146101cb578063d9d98ce4146101de578063e23746a3146101f157600080fd5b80639e18968b14610185578063ac9650d814610198578063b5c5f672146101b857600080fd5b8063613255ab116100b2578063613255ab14610129578063847a1bc91461014a5780638a44689c1461015d57600080fd5b80630efe6a8b146100d95780632cb77e9f146100ee5780635cffe9de14610116575b600080fd5b6100ec6100e736600461463f565b610204565b005b6101016100fc366004614674565b61034b565b60405190151581526020015b60405180910390f35b61010161012436600461468d565b6103a1565b61013c61013736600461472c565b61067f565b60405190815260200161010d565b610101610158366004614749565b610729565b61017061016b366004614784565b610c64565b6040805192835260208301919091520161010d565b6100ec610193366004614c89565b611b6b565b6101ab6101a6366004614d74565b6122a5565b60405161010d9190614e57565b6100ec6101c636600461463f565b61239a565b61013c6101d9366004614ed7565b6124f8565b61013c6101ec366004614f18565b610720565b6101016101ff366004614f44565b612579565b61020c6126ca565b80600003610270576040517f40e97a5e00000000000000000000000000000000000000000000000000000000815233600482015273ffffffffffffffffffffffffffffffffffffffff84166024820152604481018390526064015b60405180910390fd5b6040805133815273ffffffffffffffffffffffffffffffffffffffff85166020820152908101839052606081018290527fdcbc1c05240f31ff3ad067ef1ee35ce4997762752e3a095284754544f4c709d79060800160405180910390a16102ef73ffffffffffffffffffffffffffffffffffffffff841633308461273d565b33600090815260056020908152604080832073ffffffffffffffffffffffffffffffffffffffff87168452825280832085845290915281208054839290610337908490614fae565b90915550506001600055505050565b505050565b60008054600203610388576040517f3ee5aeb500000000000000000000000000000000000000000000000000000000815260040160405180910390fd5b506000818152600460205260409020546001145b919050565b600073ffffffffffffffffffffffffffffffffffffffff86166103f0576040517f6ba9ecd800000000000000000000000000000000000000000000000000000000815260040160405180910390fd5b73ffffffffffffffffffffffffffffffffffffffff851661043d576040517fad1991f500000000000000000000000000000000000000000000000000000000815260040160405180910390fd5b83600003610477576040517f1f2a200500000000000000000000000000000000000000000000000000000000815260040160405180910390fd5b61047f61281f565b6002805473ffffffffffffffffffffffffffffffffffffffff8088167fffffffffffffffffffffffff00000000000000000000000000000000000000009283161790925560018054928916929091169190911790556104df600085614fae565b60035561050373ffffffffffffffffffffffffffffffffffffffff86168786612890565b6040517f23e30c8b00000000000000000000000000000000000000000000000000000000815260009073ffffffffffffffffffffffffffffffffffffffff8816906323e30c8b906105629033908a908a9087908b908b9060040161500a565b6020604051808303816000875af1158015610581573d6000803e3d6000fd5b505050506040513d601f19601f820116820180604052508101906105a5919061505c565b90507f439148f0bbc682ca079e46d6e2c2f0c1e3b820f1a291b069d8882abf8cf18dd98114610603576040517f5b62c54800000000000000000000000000000000000000000000000000000000815260048101829052602401610267565b600354945084156106365761063073ffffffffffffffffffffffffffffffffffffffff871688308861273d565b60006003555b600180547fffffffffffffffffffffffff000000000000000000000000000000000000000090811690915560028054909116905561067261281f565b5060019695505050505050565b60006106896128e6565b610720576040517f70a0823100000000000000000000000000000000000000000000000000000000815230600482015273ffffffffffffffffffffffffffffffffffffffff8316906370a0823190602401602060405180830381865afa1580156106f7573d6000803e3d6000fd5b505050506040513d601f19601f8201168201806040525081019061071b919061505c565b610723565b60005b92915050565b60006107336126ca565b600061078d6107456040850185615075565b6107539060208101906150b3565b8080601f01602080910402602001604051908101604052809392919081815260200183838082843760009201919091525061293792505050565b9050806000036107cb576040517f1914441e000000000000000000000000000000000000000000000000000000008152336004820152602401610267565b80600103610807576040517f7e47fcba000000000000000000000000000000000000000000000000000000008152336004820152602401610267565b6108118380615118565b905060000361084e576040517f32586a92000000000000000000000000000000000000000000000000000000008152336004820152602401610267565b61085b6020840184615118565b9050600003610898576040517f08d7d498000000000000000000000000000000000000000000000000000000008152336004820152602401610267565b600080806108a96040870187615075565b6108b790602081019061472c565b73ffffffffffffffffffffffffffffffffffffffff166331a66b656108df6040890189615075565b6108ed9060208101906150b3565b6108fa60408b018b615075565b61090890604081019061517f565b6040805160028082526020820152600081830152606081019091526040518663ffffffff1660e01b8152600401610943959493929190615222565b6060604051808303816000875af1158015610962573d6000803e3d6000fd5b505050506040513d601f19601f820116820180604052508101906109869190615293565b92509250925060006040518060a001604052803373ffffffffffffffffffffffffffffffffffffffff1681526020016000610a158a80604001906109ca9190615075565b6109d89060208101906150b3565b8080601f01602080910402602001604051908101604052809392919081815260200183838082843760009201919091525060019250612955915050565b1181526040805160608101825273ffffffffffffffffffffffffffffffffffffffff80891682528781166020838101919091529087168284015283015201610a5d8980615118565b808060200260200160405190810160405280939291908181526020016000905b82821015610aa957610a9a606083028601368190038101906152e0565b81526020019060010190610a7d565b50505050508152602001888060200190610ac39190615118565b808060200260200160405190810160405280939291908181526020016000905b82821015610b0f57610b00606083028601368190038101906152e0565b81526020019060010190610ae3565b505050505081525090506000610b248261296e565b600081815260046020526040902054909150610c54576000818152600460205260409081902060019081905597507f6fa57e1a7a1fbbf3623af2b2025fcd9a5e7e4e31a2a6ec7523445f18e9c50ebf903390610b82908b018b615075565b610b9090602081019061472c565b8484604051610ba294939291906153de565b60405180910390a16000610bb960608a018a6150b3565b90501115610c5457610c0b610bd160608a018a6150b3565b8080601f01602080910402602001604051908101604052809392919081815260200183838082843760009201919091525061299e92505050565b7fbea766d03fa1efd3f81cc8634d08320bc62bb0ed9234ac59bbaafa5893fb6b133382610c3b60608c018c6150b3565b604051610c4b9493929190615428565b60405180910390a15b50505050505061039c6001600055565b600080610c6f6126ca565b610c7c606084018461517f565b9050600003610cb7576040517f9c95219f00000000000000000000000000000000000000000000000000000000815260040160405180910390fd5b6000610d1e604080516101208101825260006080820181815260a08301829052835160608082018652838252602080830185905282870185905260c086019290925260e0850181905261010085018190529184528301829052928201528181019190915290565b6040805160a081018252600080825260208083018290528351606080820186528382529181018390528085019290925292820152818101829052608081019190915260208601356000819003610da0576040517fc2ee700900000000000000000000000000000000000000000000000000000000815260040160405180910390fd5b610dad606088018861517f565b905084108015610dbd5750600081115b156117c657610dcf606088018861517f565b85818110610ddf57610ddf61545e565b9050602002810190610df1919061548d565b610dfa906154c1565b80519093509150610e0e606088018861517f565b6000818110610e1f57610e1f61545e565b9050602002810190610e31919061548d565b610e3b908061555b565b610e499060a0810190615118565b610e5660608a018a61517f565b6000818110610e6757610e6761545e565b9050602002810190610e79919061548d565b60200135818110610e8c57610e8c61545e565b610ea2926020606090920201908101915061472c565b73ffffffffffffffffffffffffffffffffffffffff168260600151846020015181518110610ed257610ed261545e565b60200260200101516000015173ffffffffffffffffffffffffffffffffffffffff1614611012578160600151836020015181518110610f1357610f1361545e565b602090810291909101015151610f2c606089018961517f565b6000818110610f3d57610f3d61545e565b9050602002810190610f4f919061548d565b610f59908061555b565b610f679060a0810190615118565b610f7460608b018b61517f565b6000818110610f8557610f8561545e565b9050602002810190610f97919061548d565b60200135818110610faa57610faa61545e565b610fc0926020606090920201908101915061472c565b6040517ff902523f00000000000000000000000000000000000000000000000000000000815273ffffffffffffffffffffffffffffffffffffffff928316600482015291166024820152604401610267565b61101f606088018861517f565b60008181106110305761103061545e565b9050602002810190611042919061548d565b61104c908061555b565b61105a9060c0810190615118565b61106760608a018a61517f565b60008181106110785761107861545e565b905060200281019061108a919061548d565b6040013581811061109d5761109d61545e565b6110b3926020606090920201908101915061472c565b73ffffffffffffffffffffffffffffffffffffffff1682608001518460400151815181106110e3576110e361545e565b60200260200101516000015173ffffffffffffffffffffffffffffffffffffffff16146111bb5781608001518360400151815181106111245761112461545e565b60209081029190910101515161113d606089018961517f565b600081811061114e5761114e61545e565b9050602002810190611160919061548d565b61116a908061555b565b6111789060c0810190615118565b61118560608b018b61517f565b60008181106111965761119661545e565b90506020028101906111a8919061548d565b60400135818110610faa57610faa61545e565b6111c8606088018861517f565b60008181106111d9576111d961545e565b90506020028101906111eb919061548d565b6111f5908061555b565b6112039060a0810190615118565b61121060608a018a61517f565b60008181106112215761122161545e565b9050602002810190611233919061548d565b602001358181106112465761124661545e565b905060600201602001602081019061125e919061558f565b60ff16826060015184602001518151811061127b5761127b61545e565b60200260200101516020015160ff161461139a5781606001518360200151815181106112a9576112a961545e565b6020026020010151602001518780606001906112c5919061517f565b60008181106112d6576112d661545e565b90506020028101906112e8919061548d565b6112f2908061555b565b6113009060a0810190615118565b61130d60608b018b61517f565b600081811061131e5761131e61545e565b9050602002810190611330919061548d565b602001358181106113435761134361545e565b905060600201602001602081019061135b919061558f565b6040517f0f6ce47700000000000000000000000000000000000000000000000000000000815260ff928316600482015291166024820152604401610267565b6113a7606088018861517f565b60008181106113b8576113b861545e565b90506020028101906113ca919061548d565b6113d4908061555b565b6113e29060c0810190615118565b6113ef60608a018a61517f565b60008181106114005761140061545e565b9050602002810190611412919061548d565b604001358181106114255761142561545e565b905060600201602001602081019061143d919061558f565b60ff16826080015184604001518151811061145a5761145a61545e565b60200260200101516020015160ff16146115225781608001518360400151815181106114885761148861545e565b6020026020010151602001518780606001906114a4919061517f565b60008181106114b5576114b561545e565b90506020028101906114c7919061548d565b6114d1908061555b565b6114df9060c0810190615118565b6114ec60608b018b61517f565b60008181106114fd576114fd61545e565b905060200281019061150f919061548d565b604001358181106113435761134361545e565b600061152d8361296e565b6000818152600460205260409020549091506115a05782516040805133815273ffffffffffffffffffffffffffffffffffffffff909216602083015281018290527fb70c12fa453793fa6818ec07c91e74363a47aa6a6829dcd9533937fdf30314f39060600160405180910390a16117ba565b60006115bb84866020015187604001513389606001516129e2565b905088604001358160600151111561162b5783516040805133815273ffffffffffffffffffffffffffffffffffffffff909216602083015281018390527fe3151dc8cb7a54ffc4baabd28c1f241c94d510b5e5b502491ac3cad6c16316d5906060015b60405180910390a16117b8565b806040015160000361168c5783516040805133815273ffffffffffffffffffffffffffffffffffffffff909216602083015281018390527f500b713857325f9e6dcb52ae832eca9109d107ed1aae9cb4928b4c1e13f051aa9060600161161e565b600084608001518660400151815181106116a8576116a861545e565b6020908102919091018101510151604083015190915060006116cf8660ff851660026130d2565b9050808211156116dd578091505b506000806116fb85606001516001856131579092919063ffffffff16565b905061173b88606001518a602001518151811061171a5761171a61545e565b60200260200101516020015160ff166001836131759092919063ffffffff16565b9150600090506117508360ff86166002613175565b905061175c81886155aa565b9650611768828c614fae565b9a50611776888383886131d7565b7f219a030b7ae56e7bea2baab709a4a45dc174a1f85e57730e5cb395bc32962542338a83856040516117ab94939291906155bd565b60405180910390a1505050505b505b50600190930192610da0565b6117d48160208901356155aa565b9550863586101561181b576040517f45094d880000000000000000000000000000000000000000000000000000000081528735600482015260248101879052604401610267565b60006118c861182d60608a018a61517f565b600081811061183e5761183e61545e565b9050602002810190611850919061548d565b61185a908061555b565b6118689060c0810190615118565b61187560608c018c61517f565b60008181106118865761188661545e565b9050602002810190611898919061548d565b604001358181106118ab576118ab61545e565b6118c1926020606090920201908101915061472c565b3389613681565b905060006118d960808a018a6150b3565b90501115611a8c573363059bebe66118f460608b018b61517f565b60008181106119055761190561545e565b9050602002810190611917919061548d565b611921908061555b565b61192f9060c0810190615118565b61193c60608d018d61517f565b600081811061194d5761194d61545e565b905060200281019061195f919061548d565b604001358181106119725761197261545e565b611988926020606090920201908101915061472c565b61199560608c018c61517f565b60008181106119a6576119a661545e565b90506020028101906119b8919061548d565b6119c2908061555b565b6119d09060a0810190615118565b6119dd60608e018e61517f565b60008181106119ee576119ee61545e565b9050602002810190611a00919061548d565b60200135818110611a1357611a1361545e565b611a29926020606090920201908101915061472c565b848a611a3860808f018f6150b3565b6040518763ffffffff1660e01b8152600401611a599695949392919061500a565b600060405180830381600087803b158015611a7357600080fd5b505af1158015611a87573d6000803e3d6000fd5b505050505b8515611b5757611b57333088611aa560608d018d61517f565b6000818110611ab657611ab661545e565b9050602002810190611ac8919061548d565b611ad2908061555b565b611ae09060a0810190615118565b611aed60608f018f61517f565b6000818110611afe57611afe61545e565b9050602002810190611b10919061548d565b60200135818110611b2357611b2361545e565b611b39926020606090920201908101915061472c565b73ffffffffffffffffffffffffffffffffffffffff1692919061273d565b5050505050611b666001600055565b915091565b611b736126ca565b8351855173ffffffffffffffffffffffffffffffffffffffff918216911603611be35784516040517f227e4ce900000000000000000000000000000000000000000000000000000000815273ffffffffffffffffffffffffffffffffffffffff9091166004820152602401610267565b8360600151836040013581518110611bfd57611bfd61545e565b60200260200101516000015173ffffffffffffffffffffffffffffffffffffffff168560800151846020013581518110611c3957611c3961545e565b60200260200101516000015173ffffffffffffffffffffffffffffffffffffffff1614611cfe578460800151836020013581518110611c7a57611c7a61545e565b6020026020010151600001518460600151846040013581518110611ca057611ca061545e565b6020908102919091010151516040517ff902523f00000000000000000000000000000000000000000000000000000000815273ffffffffffffffffffffffffffffffffffffffff928316600482015291166024820152604401610267565b8360600151836040013581518110611d1857611d1861545e565b60200260200101516020015160ff168560800151846020013581518110611d4157611d4161545e565b60200260200101516020015160ff1614611de4578460800151836020013581518110611d6f57611d6f61545e565b6020026020010151602001518460600151846040013581518110611d9557611d9561545e565b6020026020010151602001516040517f0f6ce47700000000000000000000000000000000000000000000000000000000815260040161026792919060ff92831681529116602082015260400190565b606085015180518435908110611dfc57611dfc61545e565b60200260200101516000015173ffffffffffffffffffffffffffffffffffffffff168460800151846060013581518110611e3857611e3861545e565b60200260200101516000015173ffffffffffffffffffffffffffffffffffffffff1614611e9d57606085015180518435908110611e7757611e7761545e565b6020026020010151600001518460800151846060013581518110611ca057611ca061545e565b606085015180518435908110611eb557611eb561545e565b60200260200101516020015160ff168460800151846060013581518110611ede57611ede61545e565b60200260200101516020015160ff1614611f3057606085015180518435908110611f0a57611f0a61545e565b6020026020010151602001518460800151846060013581518110611d9557611d9561545e565b600060046000611f3f8861296e565b81526020019081526020016000205403611fbe577fb70c12fa453793fa6818ec07c91e74363a47aa6a6829dcd9533937fdf30314f3338660000151611f838861296e565b6040805173ffffffffffffffffffffffffffffffffffffffff94851681529390921660208401529082015260600160405180910390a1612294565b600060046000611fcd8761296e565b81526020019081526020016000205403612011577fb70c12fa453793fa6818ec07c91e74363a47aa6a6829dcd9533937fdf30314f3338560000151611f838761296e565b7fd153812deb929a6e4378f6f8cf61d010470840bf2e736f43fb2275803958bfa23386868660405161204694939291906156ed565b60405180910390a1600061206986856000013586602001358860000151866129e2565b9050600061208686866040013587606001358a60000151886129e2565b905060006120948383613732565b90506120aa8882604001518360000151866131d7565b6120be8782606001518360200151856131d7565b606081015181516000916120d1916155aa565b90506000826040015183602001516120e991906155aa565b9050811561218f57336000908152600560209081526040822060808d01518051869492938d013590811061211f5761211f61545e565b60200260200101516000015173ffffffffffffffffffffffffffffffffffffffff1673ffffffffffffffffffffffffffffffffffffffff16815260200190815260200160002060008a60800135815260200190815260200160002060008282546121899190614fae565b90915550505b80156122335733600090815260056020526040812060808b015180518493919060608d01359081106121c3576121c361545e565b60200260200101516000015173ffffffffffffffffffffffffffffffffffffffff1673ffffffffffffffffffffffffffffffffffffffff16815260200190815260200160002060008a60a001358152602001908152602001600020600082825461222d9190614fae565b90915550505b5050604080513381528251602080830191909152830151818301529082015160608083019190915282015160808201527f3f20e55919cca701abb2a40ab72542b25ea7eed63a50f979dd2cd3231e5f488d9060a00160405180910390a15050505b61229e6001600055565b5050505050565b60608167ffffffffffffffff8111156122c0576122c06147bf565b6040519080825280602002602001820160405280156122f357816020015b60608152602001906001900390816122de5790505b50905060005b8281101561239357612363308585848181106123175761231761545e565b905060200281019061232991906150b3565b8080601f01602080910402602001604051908101604052809392919081815260200183838082843760009201919091525061378892505050565b8282815181106123755761237561545e565b6020026020010181905250808061238b90615777565b9150506122f9565b5092915050565b6123a26126ca565b80600003612401576040517ff7a898f600000000000000000000000000000000000000000000000000000000815233600482015273ffffffffffffffffffffffffffffffffffffffff8416602482015260448101839052606401610267565b33600090815260056020908152604080832073ffffffffffffffffffffffffffffffffffffffff8716845282528083208584529091528120549061244583836137ad565b905080156124ec5761245781836155aa565b33600081815260056020908152604080832073ffffffffffffffffffffffffffffffffffffffff8b168085529083528184208a855283529281902094909455835192835282015290810185905260608101849052608081018290527febff2602b3f468259e1e99f613fed6691f3a6526effe6ef3e768ba7ae7a36c4f9060a00160405180910390a16124ea853383613681565b505b50506103466001600055565b60008054600203612535576040517f3ee5aeb500000000000000000000000000000000000000000000000000000000815260040160405180910390fd5b5073ffffffffffffffffffffffffffffffffffffffff80841660009081526005602090815260408083209386168352928152828220848352905220545b9392505050565b60006125836126ca565b612590602083018361472c565b73ffffffffffffffffffffffffffffffffffffffff163373ffffffffffffffffffffffffffffffffffffffff161461262257336125d0602084018461472c565b6040517f4702b91400000000000000000000000000000000000000000000000000000000815273ffffffffffffffffffffffffffffffffffffffff928316600482015291166024820152604401610267565b6000612635612630846157af565b61296e565b6000818152600460205260409020549091507fffffffffffffffffffffffffffffffffffffffffffffffffffffffffffffffff016126bf576000818152600460205260408082209190915551600192507f74037e398a4a92c9c1c49ac01c1dabd7f71165fbb4810b72c068f08edd192448906126b69033908690859061588b565b60405180910390a15b5061039c6001600055565b600260005403612736576040517f08c379a000000000000000000000000000000000000000000000000000000000815260206004820152601f60248201527f5265656e7472616e637947756172643a207265656e7472616e742063616c6c006044820152606401610267565b6002600055565b60405173ffffffffffffffffffffffffffffffffffffffff808516602483015283166044820152606481018290526128199085907f23b872dd00000000000000000000000000000000000000000000000000000000906084015b604080517fffffffffffffffffffffffffffffffffffffffffffffffffffffffffffffffe08184030181529190526020810180517bffffffffffffffffffffffffffffffffffffffffffffffffffffffff167fffffffff00000000000000000000000000000000000000000000000000000000909316929092179091526137c3565b50505050565b6128276128e6565b1561288e576001546002546003546040517f60817cfa00000000000000000000000000000000000000000000000000000000815273ffffffffffffffffffffffffffffffffffffffff93841660048201529290911660248301526044820152606401610267565b565b60405173ffffffffffffffffffffffffffffffffffffffff83166024820152604481018290526103469084907fa9059cbb0000000000000000000000000000000000000000000000000000000090606401612797565b60015460009073ffffffffffffffffffffffffffffffffffffffff16151580612926575060025473ffffffffffffffffffffffffffffffffffffffff1615155b80612932575060035415155b905090565b6000815160000361294a57506000919050565b506020015160001a90565b60008061296284846138d2565b5160001a949350505050565b6000816040516020016129819190615990565b604051602081830303815290604052805190602001209050919050565b6129a781613903565b6129df57806040517f644cc25800000000000000000000000000000000000000000000000000000000815260040161026791906159a3565b50565b6040805161018081018252600060e08201818152610100830182905283516060808201865283825260208083018590528287018590526101208601929092526101408501819052610160850181905291845283018290529282018190528282018190526080820183905260a082015260c08101919091526000612a648761296e565b60408051600480825260a08201909252919250606091600091816020015b6060815260200190600190039081612a8257905050895160408051600381526020810187905273ffffffffffffffffffffffffffffffffffffffff928316818301529189166060830152608082019052909150816001800381518110612aea57612aea61545e565b6020026020010181905250612c7f89606001518981518110612b0e57612b0e61545e565b60200260200101516000015173ffffffffffffffffffffffffffffffffffffffff168a606001518a81518110612b4657612b4661545e565b60200260200101516020015160ff168b606001518b81518110612b6b57612b6b61545e565b602002602001015160400151600560008e6000015173ffffffffffffffffffffffffffffffffffffffff1673ffffffffffffffffffffffffffffffffffffffff16815260200190815260200160002060008e606001518e81518110612bd257612bd261545e565b60200260200101516000015173ffffffffffffffffffffffffffffffffffffffff1673ffffffffffffffffffffffffffffffffffffffff16815260200190815260200160002060008e606001518e81518110612c3057612c3061545e565b602002602001015160400151815260200190815260200160002054600060408051600581526020810196909652858101949094526060850192909252608084015260a083015260c08201905290565b81600160030381518110612c9557612c9561545e565b6020026020010181905250612ddb89608001518881518110612cb957612cb961545e565b60200260200101516000015173ffffffffffffffffffffffffffffffffffffffff168a608001518981518110612cf157612cf161545e565b60200260200101516020015160ff168b608001518a81518110612d1657612d1661545e565b602002602001015160400151600560008e6000015173ffffffffffffffffffffffffffffffffffffffff1673ffffffffffffffffffffffffffffffffffffffff16815260200190815260200160002060008e608001518d81518110612d7d57612d7d61545e565b60200260200101516000015173ffffffffffffffffffffffffffffffffffffffff1673ffffffffffffffffffffffffffffffffffffffff16815260200190815260200160002060008e608001518d81518110612c3057612c3061545e565b81600160040381518110612df157612df161545e565b6020026020010181905250612e068186613933565b9150506000886000015173ffffffffffffffffffffffffffffffffffffffff1690506000808a604001516000015173ffffffffffffffffffffffffffffffffffffffff16636715f8258c604001516020015185612e6a8f6040015160400151613c43565b886040518563ffffffff1660e01b8152600401612e8a94939291906159fb565b600060405180830381865afa158015612ea7573d6000803e3d6000fd5b505050506040513d6000823e601f3d9081017fffffffffffffffffffffffffffffffffffffffffffffffffffffffffffffffe0168201604052612eed9190810190615a91565b91509150600082600284510381518110612f0957612f0961545e565b60200260200101519050600083600185510381518110612f2b57612f2b61545e565b602002602001015190506000600560008f6000015173ffffffffffffffffffffffffffffffffffffffff1673ffffffffffffffffffffffffffffffffffffffff16815260200190815260200160002060008f608001518e81518110612f9257612f9261545e565b60200260200101516000015173ffffffffffffffffffffffffffffffffffffffff1673ffffffffffffffffffffffffffffffffffffffff16815260200190815260200160002060008f608001518e81518110612ff057612ff061545e565b602002602001015160400151815260200190815260200160002054905060006130498f608001518e815181106130285761302861545e565b60200260200101516020015160ff166000846130d29092919063ffffffff16565b905080841115613057578093505b505060408051600281526020810184905280820183905260608101909152866002815181106130885761308861545e565b6020908102919091018101919091526040805160e0810182529e8f52908e019b909b52998c015260608b019890985250608089019190915260a08801525050505060c08301525090565b6000826012111561310757601283900360028316156130fd576130f58582613c6c565b915050612572565b6130f58582613cf2565b6012831115613150577fffffffffffffffffffffffffffffffffffffffffffffffffffffffffffffffee83016001831615613146576130f58582613d2a565b6130f58582613d78565b5082612572565b600061316d8484670de0b6b3a764000085613d9b565b949350505050565b600082601211156131985760128390036001831615613146576130f58582613d2a565b6012831115613150577fffffffffffffffffffffffffffffffffffffffffffffffffffffffffffffffee830160028316156130fd576130f58582613c6c565b8281608001516003815181106131ef576131ef61545e565b60200260200101516004815181106132095761320961545e565b60200260200101818152505081816080015160048151811061322d5761322d61545e565b60200260200101516004815181106132475761324761545e565b6020908102919091010152821561335457835173ffffffffffffffffffffffffffffffffffffffff1660009081526005602052604081206080830151805186939190600390811061329a5761329a61545e565b60200260200101516000815181106132b4576132b461545e565b602002602001015173ffffffffffffffffffffffffffffffffffffffff1673ffffffffffffffffffffffffffffffffffffffff1681526020019081526020016000206000836080015160038151811061330f5761330f61545e565b60200260200101516002815181106133295761332961545e565b60200260200101518152602001908152602001600020600082825461334e9190614fae565b90915550505b811561345657835173ffffffffffffffffffffffffffffffffffffffff1660009081526005602052604081206080830151805185939190600490811061339c5761339c61545e565b60200260200101516000815181106133b6576133b661545e565b602002602001015173ffffffffffffffffffffffffffffffffffffffff1673ffffffffffffffffffffffffffffffffffffffff168152602001908152602001600020600083608001516004815181106134115761341161545e565b602002602001015160028151811061342b5761342b61545e565b60200260200101518152602001908152602001600020600082825461345091906155aa565b90915550505b7f17a5c0f3785132a57703932032f6863e7920434150aa1dc940e567b440fdce1f33826080015160405161348b929190615af5565b60405180910390a160c0810151511561351c5783604001516020015173ffffffffffffffffffffffffffffffffffffffff1663946aadc68260a001518360c001516040518363ffffffff1660e01b81526004016134e9929190615b24565b600060405180830381600087803b15801561350357600080fd5b505af1158015613517573d6000803e3d6000fd5b505050505b8360200151156128195760008085604001516000015173ffffffffffffffffffffffffffffffffffffffff16636715f8258760400151602001518560a0015161356c8a6040015160400151613df8565b87608001516040518563ffffffff1660e01b815260040161359094939291906159fb565b600060405180830381865afa1580156135ad573d6000803e3d6000fd5b505050506040513d6000823e601f3d9081017fffffffffffffffffffffffffffffffffffffffffffffffffffffffffffffffe01682016040526135f39190810190615a91565b80519193509150156136795785604001516020015173ffffffffffffffffffffffffffffffffffffffff1663946aadc68460a00151836040518363ffffffff1660e01b8152600401613646929190615b24565b600060405180830381600087803b15801561366057600080fd5b505af1158015613674573d6000803e3d6000fd5b505050505b505050505050565b60025460009073ffffffffffffffffffffffffffffffffffffffff85811691161480156136c8575060015473ffffffffffffffffffffffffffffffffffffffff8481169116145b1561370b5760006136e4600354846137ad90919063ffffffff16565b90506136f081846155aa565b9250806003600082825461370491906155aa565b9091555050505b81156123935761239373ffffffffffffffffffffffffffffffffffffffff85168484612890565b61375d6040518060800160405280600081526020016000815260200160008152602001600081525090565b6137678383613e23565b825260408201526137788284613e23565b6020830152606082015292915050565b60606125728383604051806060016040528060278152602001615d4960279139613ee8565b60008183106137bc5781612572565b5090919050565b6000613825826040518060400160405280602081526020017f5361666545524332303a206c6f772d6c6576656c2063616c6c206661696c65648152508573ffffffffffffffffffffffffffffffffffffffff16613f6d9092919063ffffffff16565b90508051600014806138465750808060200190518101906138469190615b3d565b610346576040517f08c379a000000000000000000000000000000000000000000000000000000000815260206004820152602a60248201527f5361666545524332303a204552433230206f7065726174696f6e20646964206e60448201527f6f742073756363656564000000000000000000000000000000000000000000006064820152608401610267565b6000806138de84612937565b600202600101905060006138f28585613f7c565b949091019093016020019392505050565b600060088251101561391757506000919050565b506008015167ffffffffffffffff1667ff0a89c674ee78741490565b60606000825167ffffffffffffffff811115613951576139516147bf565b60405190808252806020026020018201604052801561397a578160200160208202803683370190505b50905060008084511161398e576000613994565b83516001015b855160010101905060008167ffffffffffffffff8111156139b7576139b76147bf565b6040519080825280602002602001820160405280156139ea57816020015b60608152602001906001900390816139d55790505b5090506000613a0f604080516002815233602082015230818301526060810190915290565b828281518110613a2157613a2161545e565b602002602001018190525060005b8751811015613a7f578180600101925050878181518110613a5257613a5261545e565b6020026020010151838381518110613a6c57613a6c61545e565b6020908102919091010152600101613a2f565b50855115613c3957808060010191505083828281518110613aa257613aa261545e565b602002602001018190525060005b8651811015613c3757613b61878281518110613ace57613ace61545e565b602002602001015160000151613b3e613b0b8a8581518110613af257613af261545e565b6020026020010151602001518051602090810291012090565b7f19457468657265756d205369676e6564204d6573736167653a0a3332000000006000908152601c91909152603c902090565b898481518110613b5057613b5061545e565b602002602001015160400151613ff4565b613b9a576040517f52bf984800000000000000000000000000000000000000000000000000000000815260048101829052602401610267565b868181518110613bac57613bac61545e565b60200260200101516000015173ffffffffffffffffffffffffffffffffffffffff16858281518110613be057613be061545e565b6020026020010181815250508180600101925050868181518110613c0657613c0661545e565b602002602001015160200151838381518110613c2457613c2461545e565b6020908102919091010152600101613ab0565b505b5095945050505050565b6000602082901b77ffffffffffffffffffffffffffffffffffffffff0000000016600217610723565b6000604e8210613cac578215613ca2577fffffffffffffffffffffffffffffffffffffffffffffffffffffffffffffffff613ca5565b60005b9050610723565b50600a81900a8281029083818381613cc657613cc6615b5a565b0414612393577fffffffffffffffffffffffffffffffffffffffffffffffffffffffffffffffff61316d565b600a81900a613d018184615b89565b9050604e8210610723578215613d2157613d1c82600a615cc0565b612572565b50600092915050565b6000604e8210613d4e578215613d41576001613d44565b60005b60ff169050610723565b600a82900a808481613d6257613d62615b5a565b0491508082028414612393575060010192915050565b6000604e821015613d215781600a0a8381613d9557613d95615b5a565b04612572565b600080613da9868686614065565b90506001836002811115613dbf57613dbf615ccc565b148015613ddc575060008480613dd757613dd7615b5a565b868809115b15613def57613dec600182614fae565b90505b95945050505050565b600062010000602083901b77ffffffffffffffffffffffffffffffffffffffff000000001617610723565b6000806000613e468460600151600186604001516131579092919063ffffffff16565b604086015190915081811115613e595750805b613e9b866000015160800151876020015181518110613e7a57613e7a61545e565b60200260200101516020015160ff166000836131759092919063ffffffff16565b92506000613eb987606001516001846131579092919063ffffffff16565b9050613edc86600001516080015187602001518151811061171a5761171a61545e565b94505050509250929050565b60606000808573ffffffffffffffffffffffffffffffffffffffff1685604051613f129190615cfb565b600060405180830381855af49150503d8060008114613f4d576040519150601f19603f3d011682016040523d82523d6000602084013e613f52565b606091505b5091509150613f638683838761418f565b9695505050505050565b606061316d848460008561422f565b6002810282016003015161ffff166000613f9584612937565b845190915060056002830284010190811180613fb15750818410155b15613fec5784846040517fd3fc97bd000000000000000000000000000000000000000000000000000000008152600401610267929190615d0d565b505092915050565b60008060006140038585614348565b9092509050600081600481111561401c5761401c615ccc565b14801561405457508573ffffffffffffffffffffffffffffffffffffffff168273ffffffffffffffffffffffffffffffffffffffff16145b80613f635750613f6386868661438d565b600080807fffffffffffffffffffffffffffffffffffffffffffffffffffffffffffffffff858709858702925082811083820303915050806000036140bd578382816140b3576140b3615b5a565b0492505050612572565b808411614126576040517f08c379a000000000000000000000000000000000000000000000000000000000815260206004820152601560248201527f4d6174683a206d756c446976206f766572666c6f7700000000000000000000006044820152606401610267565b60008486880960026001871981018816978890046003810283188082028403028082028403028082028403028082028403028082028403029081029092039091026000889003889004909101858311909403939093029303949094049190911702949350505050565b6060831561422557825160000361421e5773ffffffffffffffffffffffffffffffffffffffff85163b61421e576040517f08c379a000000000000000000000000000000000000000000000000000000000815260206004820152601d60248201527f416464726573733a2063616c6c20746f206e6f6e2d636f6e74726163740000006044820152606401610267565b508161316d565b61316d83836144ea565b6060824710156142c1576040517f08c379a000000000000000000000000000000000000000000000000000000000815260206004820152602660248201527f416464726573733a20696e73756666696369656e742062616c616e636520666f60448201527f722063616c6c00000000000000000000000000000000000000000000000000006064820152608401610267565b6000808673ffffffffffffffffffffffffffffffffffffffff1685876040516142ea9190615cfb565b60006040518083038185875af1925050503d8060008114614327576040519150601f19603f3d011682016040523d82523d6000602084013e61432c565b606091505b509150915061433d8783838761418f565b979650505050505050565b600080825160410361437e5760208301516040840151606085015160001a6143728782858561452e565b94509450505050614386565b506000905060025b9250929050565b60008060008573ffffffffffffffffffffffffffffffffffffffff16631626ba7e60e01b86866040516024016143c4929190615d2f565b604080517fffffffffffffffffffffffffffffffffffffffffffffffffffffffffffffffe08184030181529181526020820180517bffffffffffffffffffffffffffffffffffffffffffffffffffffffff167fffffffff0000000000000000000000000000000000000000000000000000000090941693909317909252905161444d9190615cfb565b600060405180830381855afa9150503d8060008114614488576040519150601f19603f3d011682016040523d82523d6000602084013e61448d565b606091505b50915091508180156144a157506020815110155b8015613f63575080517f1626ba7e00000000000000000000000000000000000000000000000000000000906144df908301602090810190840161505c565b149695505050505050565b8151156144fa5781518083602001fd5b806040517f08c379a000000000000000000000000000000000000000000000000000000000815260040161026791906159a3565b6000807f7fffffffffffffffffffffffffffffff5d576e7357a4501ddfe92f46681b20a08311156145655750600090506003614614565b6040805160008082526020820180845289905260ff881692820192909252606081018690526080810185905260019060a0016020604051602081039080840390855afa1580156145b9573d6000803e3d6000fd5b50506040517fffffffffffffffffffffffffffffffffffffffffffffffffffffffffffffffe0015191505073ffffffffffffffffffffffffffffffffffffffff811661460d57600060019250925050614614565b9150600090505b94509492505050565b73ffffffffffffffffffffffffffffffffffffffff811681146129df57600080fd5b60008060006060848603121561465457600080fd5b833561465f8161461d565b95602085013595506040909401359392505050565b60006020828403121561468657600080fd5b5035919050565b6000806000806000608086880312156146a557600080fd5b85356146b08161461d565b945060208601356146c08161461d565b935060408601359250606086013567ffffffffffffffff808211156146e457600080fd5b818801915088601f8301126146f857600080fd5b81358181111561470757600080fd5b89602082850101111561471957600080fd5b9699959850939650602001949392505050565b60006020828403121561473e57600080fd5b81356125728161461d565b60006020828403121561475b57600080fd5b813567ffffffffffffffff81111561477257600080fd5b82016080818503121561257257600080fd5b60006020828403121561479657600080fd5b813567ffffffffffffffff8111156147ad57600080fd5b820160a0818503121561257257600080fd5b7f4e487b7100000000000000000000000000000000000000000000000000000000600052604160045260246000fd5b6040516060810167ffffffffffffffff81118282101715614811576148116147bf565b60405290565b604051601f82017fffffffffffffffffffffffffffffffffffffffffffffffffffffffffffffffe016810167ffffffffffffffff8111828210171561485e5761485e6147bf565b604052919050565b80151581146129df57600080fd5b803561039c81614866565b60006060828403121561489157600080fd5b6148996147ee565b905081356148a68161461d565b815260208201356148b68161461d565b602082015260408201356148c98161461d565b604082015292915050565b600067ffffffffffffffff8211156148ee576148ee6147bf565b5060051b60200190565b803560ff8116811461039c57600080fd5b60006060828403121561491b57600080fd5b6149236147ee565b905081356149308161461d565b815261493e602083016148f8565b60208201526040820135604082015292915050565b600082601f83011261496457600080fd5b81356020614979614974836148d4565b614817565b8281526060928302850182019282820191908785111561499857600080fd5b8387015b858110156149bb576149ae8982614909565b845292840192810161499c565b5090979650505050505050565b600060e082840312156149da57600080fd5b60405160a0810167ffffffffffffffff82821081831117156149fe576149fe6147bf565b8160405282935084359150614a128261461d565b818352614a2160208601614874565b6020840152614a33866040870161487f565b604084015260a0850135915080821115614a4c57600080fd5b614a5886838701614953565b606084015260c0850135915080821115614a7157600080fd5b50614a7e85828601614953565b6080830152505092915050565b600082601f830112614a9c57600080fd5b813567ffffffffffffffff811115614ab657614ab66147bf565b614ae760207fffffffffffffffffffffffffffffffffffffffffffffffffffffffffffffffe0601f84011601614817565b818152846020838601011115614afc57600080fd5b816020850160208301376000918101602001919091529392505050565b600082601f830112614b2a57600080fd5b81356020614b3a614974836148d4565b82815260059290921b84018101918181019086841115614b5957600080fd5b8286015b84811015614c7e57803567ffffffffffffffff80821115614b7d57600080fd5b908801906060828b037fffffffffffffffffffffffffffffffffffffffffffffffffffffffffffffffe0011215614bb45760008081fd5b614bbc6147ee565b86830135614bc98161461d565b815260408381013583811115614bdf5760008081fd5b8401603f81018d13614bf15760008081fd5b88810135614c01614974826148d4565b81815260059190911b82018301908a8101908f831115614c215760008081fd5b928401925b82841015614c3f5783358252928b0192908b0190614c26565b858c0152505050606084013583811115614c595760008081fd5b614c678d8a83880101614a8b565b918301919091525085525050918301918301614b5d565b509695505050505050565b6000806000806000858703610140811215614ca357600080fd5b863567ffffffffffffffff80821115614cbb57600080fd5b614cc78a838b016149c8565b97506020890135915080821115614cdd57600080fd5b614ce98a838b016149c8565b965060c07fffffffffffffffffffffffffffffffffffffffffffffffffffffffffffffffc084011215614d1b57600080fd5b604089019550610100890135925080831115614d3657600080fd5b614d428a848b01614b19565b9450610120890135925080831115614d5957600080fd5b5050614d6788828901614b19565b9150509295509295909350565b60008060208385031215614d8757600080fd5b823567ffffffffffffffff80821115614d9f57600080fd5b818501915085601f830112614db357600080fd5b813581811115614dc257600080fd5b8660208260051b8501011115614dd757600080fd5b60209290920196919550909350505050565b60005b83811015614e04578181015183820152602001614dec565b50506000910152565b60008151808452614e25816020860160208601614de9565b601f017fffffffffffffffffffffffffffffffffffffffffffffffffffffffffffffffe0169290920160200192915050565b6000602080830181845280855180835260408601915060408160051b870101925083870160005b82811015614eca577fffffffffffffffffffffffffffffffffffffffffffffffffffffffffffffffc0888603018452614eb8858351614e0d565b94509285019290850190600101614e7e565b5092979650505050505050565b600080600060608486031215614eec57600080fd5b8335614ef78161461d565b92506020840135614f078161461d565b929592945050506040919091013590565b60008060408385031215614f2b57600080fd5b8235614f368161461d565b946020939093013593505050565b600060208284031215614f5657600080fd5b813567ffffffffffffffff811115614f6d57600080fd5b820160e0818503121561257257600080fd5b7f4e487b7100000000000000000000000000000000000000000000000000000000600052601160045260246000fd5b8082018082111561072357610723614f7f565b8183528181602085013750600060208284010152600060207fffffffffffffffffffffffffffffffffffffffffffffffffffffffffffffffe0601f840116840101905092915050565b600073ffffffffffffffffffffffffffffffffffffffff808916835280881660208401525085604083015284606083015260a0608083015261505060a083018486614fc1565b98975050505050505050565b60006020828403121561506e57600080fd5b5051919050565b600082357fffffffffffffffffffffffffffffffffffffffffffffffffffffffffffffffa18336030181126150a957600080fd5b9190910192915050565b60008083357fffffffffffffffffffffffffffffffffffffffffffffffffffffffffffffffe18436030181126150e857600080fd5b83018035915067ffffffffffffffff82111561510357600080fd5b60200191503681900382131561438657600080fd5b60008083357fffffffffffffffffffffffffffffffffffffffffffffffffffffffffffffffe184360301811261514d57600080fd5b83018035915067ffffffffffffffff82111561516857600080fd5b602001915060608102360382131561438657600080fd5b60008083357fffffffffffffffffffffffffffffffffffffffffffffffffffffffffffffffe18436030181126151b457600080fd5b83018035915067ffffffffffffffff8211156151cf57600080fd5b6020019150600581901b360382131561438657600080fd5b600081518084526020808501945080840160005b83811015615217578151875295820195908201906001016151fb565b509495945050505050565b606081526000615236606083018789614fc1565b82810360208401528481527f07ffffffffffffffffffffffffffffffffffffffffffffffffffffffffffffff85111561526e57600080fd5b8460051b808760208401370182810360209081016040850152615050908201856151e7565b6000806000606084860312156152a857600080fd5b83516152b38161461d565b60208501519093506152c48161461d565b60408501519092506152d58161461d565b809150509250925092565b6000606082840312156152f257600080fd5b6125728383614909565b600081518084526020808501945080840160005b83811015615217578151805173ffffffffffffffffffffffffffffffffffffffff1688528381015160ff16848901526040908101519088015260609096019590820190600101615310565b600073ffffffffffffffffffffffffffffffffffffffff80835116845260208301511515602085015260408301518181511660408601528160208201511660608601528160408201511660808601525050606082015160e060a08501526153c560e08501826152fc565b9050608083015184820360c0860152613def82826152fc565b600073ffffffffffffffffffffffffffffffffffffffff808716835280861660208401525060806040830152615417608083018561535b565b905082606083015295945050505050565b73ffffffffffffffffffffffffffffffffffffffff85168152836020820152606060408201526000613f63606083018486614fc1565b7f4e487b7100000000000000000000000000000000000000000000000000000000600052603260045260246000fd5b600082357fffffffffffffffffffffffffffffffffffffffffffffffffffffffffffffff818336030181126150a957600080fd5b6000608082360312156154d357600080fd5b6040516080810167ffffffffffffffff82821081831117156154f7576154f76147bf565b81604052843591508082111561550c57600080fd5b615518368387016149c8565b83526020850135602084015260408501356040840152606085013591508082111561554257600080fd5b5061554f36828601614b19565b60608301525092915050565b600082357fffffffffffffffffffffffffffffffffffffffffffffffffffffffffffffff218336030181126150a957600080fd5b6000602082840312156155a157600080fd5b612572826148f8565b8181038181111561072357610723614f7f565b600073ffffffffffffffffffffffffffffffffffffffff8087168352602060808185015286516080808601526155f761010086018261535b565b90508188015160a086015260408089015160c08701526060808a01517fffffffffffffffffffffffffffffffffffffffffffffffffffffffffffffff808885030160e08901528381518086528686019150868160051b870101878401935060005b828110156156d0577fffffffffffffffffffffffffffffffffffffffffffffffffffffffffffffffe088830301845284518a815116835289810151878b8501526156a4888501826151e7565b91890151848303858b01529190506156bc8183614e0d565b968b0196958b019593505050600101615658565b50948a019b909b5250509095019590955250919695505050505050565b600061012073ffffffffffffffffffffffffffffffffffffffff8716835280602084015261571d8184018761535b565b90508281036040840152615731818661535b565b9150508235606083015260208301356080830152604083013560a0830152606083013560c0830152608083013560e083015260a083013561010083015295945050505050565b60007fffffffffffffffffffffffffffffffffffffffffffffffffffffffffffffffff82036157a8576157a8614f7f565b5060010190565b600061072336836149c8565b60008083357fffffffffffffffffffffffffffffffffffffffffffffffffffffffffffffffe18436030181126157f057600080fd5b830160208101925035905067ffffffffffffffff81111561581057600080fd5b60608102360382131561438657600080fd5b8183526000602080850194508260005b858110156152175781356158458161461d565b73ffffffffffffffffffffffffffffffffffffffff16875260ff61586a8385016148f8565b16878401526040828101359088015260609687019690910190600101615832565b600073ffffffffffffffffffffffffffffffffffffffff80861683526060602084015284356158b98161461d565b8116606084015260208501356158ce81614866565b1515608084015260408501356158e38161461d565b811660a084015260608501356158f88161461d565b811660c0840152608085013561590d8161461d565b1660e083015261592060a08501856157bb565b60e061010085015261593761014085018284615822565b91505061594760c08601866157bb565b7fffffffffffffffffffffffffffffffffffffffffffffffffffffffffffffffa08584030161012086015261597d838284615822565b9350505050826040830152949350505050565b602081526000612572602083018461535b565b6020815260006125726020830184614e0d565b6000815180845260208085019450848260051b860182860160005b858110156149bb5783830389526159e98383516151e7565b988501989250908401906001016159d1565b73ffffffffffffffffffffffffffffffffffffffff85168152836020820152826040820152608060608201526000613f6360808301846159b6565b600082601f830112615a4757600080fd5b81516020615a57614974836148d4565b82815260059290921b84018101918181019086841115615a7657600080fd5b8286015b84811015614c7e5780518352918301918301615a7a565b60008060408385031215615aa457600080fd5b825167ffffffffffffffff80821115615abc57600080fd5b615ac886838701615a36565b93506020850151915080821115615ade57600080fd5b50615aeb85828601615a36565b9150509250929050565b73ffffffffffffffffffffffffffffffffffffffff8316815260406020820152600061316d60408301846159b6565b82815260406020820152600061316d60408301846151e7565b600060208284031215615b4f57600080fd5b815161257281614866565b7f4e487b7100000000000000000000000000000000000000000000000000000000600052601260045260246000fd5b808202811582820484141761072357610723614f7f565b600181815b80851115615bf957817fffffffffffffffffffffffffffffffffffffffffffffffffffffffffffffffff04821115615bdf57615bdf614f7f565b80851615615bec57918102915b93841c9390800290615ba5565b509250929050565b600082615c1057506001610723565b81615c1d57506000610723565b8160018114615c335760028114615c3d57615c59565b6001915050610723565b60ff841115615c4e57615c4e614f7f565b50506001821b610723565b5060208310610133831016604e8410600b8410161715615c7c575081810a610723565b615c868383615ba0565b807fffffffffffffffffffffffffffffffffffffffffffffffffffffffffffffffff04821115615cb857615cb8614f7f565b029392505050565b60006125728383615c01565b7f4e487b7100000000000000000000000000000000000000000000000000000000600052602160045260246000fd5b600082516150a9818460208701614de9565b604081526000615d206040830185614e0d565b90508260208301529392505050565b82815260406020820152600061316d6040830184614e0d56fe416464726573733a206c6f772d6c6576656c2064656c65676174652063616c6c206661696c6564",
    "linkReferences": {}
  },
  "methodIdentifiers": {
    "addOrder(((address,uint8,uint256)[],(address,uint8,uint256)[],(address,bytes,uint256[]),bytes))": "847a1bc9",
    "clear((address,bool,(address,address,address),(address,uint8,uint256)[],(address,uint8,uint256)[]),(address,bool,(address,address,address),(address,uint8,uint256)[],(address,uint8,uint256)[]),(uint256,uint256,uint256,uint256,uint256,uint256),(address,uint256[],bytes)[],(address,uint256[],bytes)[])": "9e18968b",
    "deposit(address,uint256,uint256)": "0efe6a8b",
    "flashFee(address,uint256)": "d9d98ce4",
    "flashLoan(address,address,uint256,bytes)": "5cffe9de",
    "maxFlashLoan(address)": "613255ab",
    "multicall(bytes[])": "ac9650d8",
    "orderExists(bytes32)": "2cb77e9f",
    "removeOrder((address,bool,(address,address,address),(address,uint8,uint256)[],(address,uint8,uint256)[]))": "e23746a3",
    "takeOrders((uint256,uint256,uint256,((address,bool,(address,address,address),(address,uint8,uint256)[],(address,uint8,uint256)[]),uint256,uint256,(address,uint256[],bytes)[])[],bytes))": "8a44689c",
    "vaultBalance(address,address,uint256)": "d97b2e48",
    "withdraw(address,uint256,uint256)": "b5c5f672"
  },
  "id": 157
}