{
  "abi": [
    {
      "inputs": [
        {
          "internalType": "uint256",
          "name": "dynamicLength",
          "type": "uint256"
        },
        {
          "internalType": "uint256",
          "name": "standardOpsLength",
          "type": "uint256"
        }
      ],
      "name": "BadDynamicLength",
      "type": "error"
    },
    {
      "inputs": [
        {
          "internalType": "uint256",
          "name": "ensureCode",
          "type": "uint256"
        },
        {
          "internalType": "uint256",
          "name": "errorIndex",
          "type": "uint256"
        }
      ],
      "name": "EnsureFailed",
      "type": "error"
    },
    {
      "inputs": [
        {
          "internalType": "uint256",
          "name": "condCode",
          "type": "uint256"
        }
      ],
      "name": "NoConditionsMet",
      "type": "error"
    },
    {
      "inputs": [
        {
          "internalType": "uint256",
          "name": "x",
          "type": "uint256"
        },
        {
          "internalType": "uint256",
          "name": "y",
          "type": "uint256"
        }
      ],
      "name": "PRBMath_MulDiv18_Overflow",
      "type": "error"
    },
    {
      "inputs": [
        {
          "internalType": "uint256",
          "name": "x",
          "type": "uint256"
        },
        {
          "internalType": "uint256",
          "name": "y",
          "type": "uint256"
        },
        {
          "internalType": "uint256",
          "name": "denominator",
          "type": "uint256"
        }
      ],
      "name": "PRBMath_MulDiv_Overflow",
      "type": "error"
    },
    {
      "inputs": [],
      "name": "ReadError",
      "type": "error"
    },
    {
      "inputs": [
        {
          "internalType": "bytes",
          "name": "bytecode",
          "type": "bytes"
        },
        {
          "internalType": "uint256",
          "name": "sourceIndex",
          "type": "uint256"
        }
      ],
      "name": "SourceOffsetOutOfBounds",
      "type": "error"
    },
    {
      "inputs": [
        {
          "internalType": "contract IInterpreterStoreV1",
          "name": "store",
          "type": "address"
        },
        {
          "internalType": "StateNamespace",
          "name": "namespace",
          "type": "uint256"
        },
        {
          "internalType": "EncodedDispatch",
          "name": "dispatch",
          "type": "uint256"
        },
        {
          "internalType": "uint256[][]",
          "name": "context",
          "type": "uint256[][]"
        }
      ],
      "name": "eval",
      "outputs": [
        {
          "internalType": "uint256[]",
          "name": "",
          "type": "uint256[]"
        },
        {
          "internalType": "uint256[]",
          "name": "",
          "type": "uint256[]"
        }
      ],
      "stateMutability": "view",
      "type": "function"
    },
    {
      "inputs": [],
      "name": "functionPointers",
      "outputs": [
        {
          "internalType": "bytes",
          "name": "",
          "type": "bytes"
        }
      ],
      "stateMutability": "view",
      "type": "function"
    },
    {
      "inputs": [
        {
          "internalType": "contract IInterpreterStoreV1",
          "name": "store",
          "type": "address"
        },
        {
          "internalType": "FullyQualifiedNamespace",
          "name": "namespace",
          "type": "uint256"
        },
        {
          "internalType": "bytes",
          "name": "expressionData",
          "type": "bytes"
        },
        {
          "internalType": "SourceIndex",
          "name": "sourceIndex16",
          "type": "uint16"
        },
        {
          "internalType": "uint256",
          "name": "maxOutputs",
          "type": "uint256"
        },
        {
          "internalType": "uint256[][]",
          "name": "context",
          "type": "uint256[][]"
        },
        {
          "internalType": "uint256[]",
          "name": "inputs",
          "type": "uint256[]"
        }
      ],
      "name": "offchainDebugEval",
      "outputs": [
        {
          "internalType": "uint256[]",
          "name": "",
          "type": "uint256[]"
        },
        {
          "internalType": "uint256[]",
          "name": "",
          "type": "uint256[]"
        }
      ],
      "stateMutability": "view",
      "type": "function"
    },
    {
      "inputs": [
        {
          "internalType": "bytes4",
          "name": "interfaceId",
          "type": "bytes4"
        }
      ],
      "name": "supportsInterface",
      "outputs": [
        {
          "internalType": "bool",
          "name": "",
          "type": "bool"
        }
      ],
      "stateMutability": "view",
      "type": "function"
    }
  ],
  "bytecode": {
    "object": "0x608060405234801561001057600080fd5b50612b7a806100206000396000f3fe608060405234801561001057600080fd5b506004361061004c5760003560e01c806301ffc9a7146100515780636715f82514610079578063758c13b61461009a578063f933c72f146100ad575b600080fd5b61006461005f36600461239d565b6100c2565b60405190151581526020015b60405180910390f35b61008c610087366004612591565b6101a7565b60405161007092919061262f565b61008c6100a836600461266b565b61023c565b6100b5610294565b6040516100709190612801565b60007fffffffff0000000000000000000000000000000000000000000000000000000082167f9e263f0a00000000000000000000000000000000000000000000000000000000148061015557507fffffffff0000000000000000000000000000000000000000000000000000000082167f758c13b600000000000000000000000000000000000000000000000000000000145b806101a157507f01ffc9a7000000000000000000000000000000000000000000000000000000007fffffffff000000000000000000000000000000000000000000000000000000008316145b92915050565b606080602084901c601085901c61ffff861660006101c4846102a3565b905061ffff8316600061020b826101e58d3360009182526020526040902090565b8e8c604051806080016040528060528152602001612b286052913988949392919061034a565b6040805160008152602081019091529091506102299082908661049b565b9750975050505050505094509492505050565b606080600061ffff871690506000610275828b8d89604051806080016040528060528152602001612b28605291398e949392919061034a565b905061028281868961049b565b93509350505097509795505050505050565b606061029e610804565b905090565b6060813b60008190036102e2576040517f26a9f61e00000000000000000000000000000000000000000000000000000000815260040160405180910390fd5b60408051603e83017fffffffffffffffffffffffffffffffffffffffffffffffffffffffffffffffe01681019091527fffffffffffffffffffffffffffffffffffffffffffffffffffffffffffffffff90910180825290915080600160208401853c50919050565b6103af6040518061012001604052806060815260200160608152602001600081526020016000815260200160008152602001600073ffffffffffffffffffffffffffffffffffffffff1681526020016060815260200160608152602001606081525090565b602087810180516040600191820184028b01818101518251600091821a808252948501870281019093526041808301968381019593600285020190910191908401905b8381101561043057875160f01c83015160408051600192831a80825283016020908102909101918290529084526002909901989290920191016103f2565b505050506040518061012001604052808281526020018481526020018b8152602001600081526020018a81526020018973ffffffffffffffffffffffffffffffffffffffff168152602001888152602001838152602001878152509450505050509695505050505050565b606080600085600001518660400151815181106104ba576104ba612814565b602002602001015190506000855111156104ed5760006020865102820391506020860190506104eb818388516109a4565b505b600086604001519050600080600080600060028c6101000151518161051457610514612843565b60e08e01516101008f0151602080830151600261ffff9c909c168c8102850160219081015160f01c600093841a9e909e029095019c909c019384015160258086019c50600791831a918216918290036004029095019094019950929750019450919004915061239390805b868810156106fb57875190506002848260001a060285015160f01c925062ffffff8160e01c1691506105b68f838c8663ffffffff16565b99506002848260041a060285015160f01c925062ffffff8160c01c1691506105e38f838c8663ffffffff16565b99506002848260081a060285015160f01c925062ffffff8160a01c1691506106108f838c8663ffffffff16565b995060028482600c1a060285015160f01c925062ffffff8160801c16915061063d8f838c8663ffffffff16565b99506002848260101a060285015160f01c925062ffffff8160601c16915061066a8f838c8663ffffffff16565b99506002848260141a060285015160f01c925062ffffff8160401c1691506106978f838c8663ffffffff16565b99506002848260181a060285015160f01c925062ffffff8160201c1691506106c48f838c8663ffffffff16565b995060028482601c1a060285015160f01c925062ffffff811691506106ee8f838c8663ffffffff16565b995060208801975061057f565b601c8803975085600402880196505b868810156107465750508551601c81901a83900660020284015160f01c915062ffffff8116906107398f838c86565b995060048801975061070a565b50505050505050505060006107638760e0015188604001516109cc565b90508085106107725780610774565b845b7fffffffffffffffffffffffffffffffffffffffffffffffffffffffffffffffe08084018281529192508390602084028201015b808210156107e55781518151835281526020909101907fffffffffffffffffffffffffffffffffffffffffffffffffffffffffffffffe0016107a8565b5050806107f589606001516109e5565b94509450505050935093915050565b60408051610540810182526029808252610c596020830152610ca592820192909252610ce0606082810191909152610dc46080830152610dfe60a0830152610e2d60c0830152610e5c60e08301819052610100830152610eab610120830152610eda610140830152610f3c610160830152610fc461018083015261106b6101a083015261107f6101c08301526110d56101e08301526110e96102008301526110fe61022083015261111861024083015261112361026083015261113761028083015261114c6102a08301526111c96102c08301526112146102e083015261123a61030083015261125c61032083015261127361034083018190526103608301526112be6103808301526113096103a08301526113546103c083018190526103e083015261139f61040083018190526104208301526113ea61044083015261143561046083015261148061048083018190526104a08301526114cb6104c08301526115b26104e08301526115e561050083015261163c6105208301529190819080610992565b60405180910390fd5b61099b8161166e565b94505050505090565b8060200283015b808410156109c65783518352602093840193909201916109ab565b50505050565b6000806109d984846116ff565b5160031a949350505050565b6040805160f083901c602081810283010190925290815261ffff63ffffffff67ffffffffffffffff6fffffffffffffffffffffffffffffffff610a52565b60005b8215610a4c57825182526020830151602083015260408301519250604082019150610a26565b50919050565b602085018660101b60901c8015610b42578060401c8015610ac0578060201c8015610a8457610a818185610a23565b93505b508086168015610abe578060101c8015610aa557610aa28186610a23565b94505b508088168015610abc57610ab98186610a23565b94505b505b505b508084168015610b40578060201c8015610b04578060101c8015610aeb57610ae88186610a23565b94505b508088168015610b0257610aff8186610a23565b94505b505b508086168015610b3e578060101c8015610b2557610b228186610a23565b94505b508088168015610b3c57610b398186610a23565b94505b505b505b505b508682168015610c4e578060401c8015610bcc578060201c8015610b90578060101c8015610b7757610b748186610a23565b94505b508088168015610b8e57610b8b8186610a23565b94505b505b508086168015610bca578060101c8015610bb157610bae8186610a23565b94505b508088168015610bc857610bc58186610a23565b94505b505b505b508084168015610c4c578060201c8015610c10578060101c8015610bf757610bf48186610a23565b94505b508088168015610c0e57610c0b8186610a23565b94505b505b508086168015610c4a578060101c8015610c3157610c2e8186610a23565b94505b508088168015610c4857610c458186610a23565b94505b505b505b505b505050505050919050565b604083015183516020600192830181029190910151918401029003517fffffffffffffffffffffffffffffffffffffffffffffffffffffffffffffffe0909101908152805b9392505050565b60209283015160019290920190920201517fffffffffffffffffffffffffffffffffffffffffffffffffffffffffffffffe090910190815290565b600060ff8316600884901c6020841015610d56576040517f08c379a000000000000000000000000000000000000000000000000000000000815260206004820152600f60248201527f737461636b20756e646572666c6f7700000000000000000000000000000000006044820152606401610989565b60008660c001518381518110610d6e57610d6e612814565b60200260200101518281518110610d8757610d87612814565b60209081029190910101517fffffffffffffffffffffffffffffffffffffffffffffffffffffffffffffffe0909501948552509295945050505050565b60109190911c6020028082207fffffffffffffffffffffffffffffffffffffffffffffffffffffffffffffffe09190920101908152919050565b437fffffffffffffffffffffffffffffffffffffffffffffffffffffffffffffffe09190910190815292915050565b467fffffffffffffffffffffffffffffffffffffffffffffffffffffffffffffffe09190910190815292915050565b7fffffffffffffffffffffffffffffffffffffffffffffffffffffffffffffffff7fffffffffffffffffffffffffffffffffffffffffffffffffffffffffffffffe09190910190815292915050565b427fffffffffffffffffffffffffffffffffffffffffffffffffffffffffffffffe09190910190815292915050565b7fffffffffffffffffffffffffffffffffffffffffffffffffffffffffffffffe0601083901c602002828101918201926000925b80821015610f315781518015610f25578552610f31565b50602082019150610f0e565b509295945050505050565b6000808260208560101c0281016020810394505b80821015610f7957815192508215610f6e5760208201518552610f79565b604082019150610f50565b505080600003610fbb576040517fff86627a00000000000000000000000000000000000000000000000000000000815261ffff85166004820152602401610989565b50909392505050565b8051600090602080840190601086901c0284015b600083118183101615610ff45781519250602082019150610fd8565b5081600003611062576040517f40dccdf600000000000000000000000000000000000000000000000000000000815261ffff8616600482015260208583037fffffffffffffffffffffffffffffffffffffffffffffffffffffffffffffffe001046024820152604401610989565b95945050505050565b805160209091018051909114815292915050565b7fffffffffffffffffffffffffffffffffffffffffffffffffffffffffffffffe0601083901c602002828101918201926000925b80821015610f31578151806110c9578552610f31565b506020820191506110b3565b805160209091018051909111815292915050565b80516020909101805190911015815292915050565b805160409015156020028203810151910190815292915050565b805115815292915050565b805160209091018051909110815292915050565b80516020909101805190911115815292915050565b80516020820151604090920191600091906111678282611730565b9150601085901c60025b81811015611197578551925060208601955061118d8484611730565b9350600101611171565b5050507fffffffffffffffffffffffffffffffffffffffffffffffffffffffffffffffe0929092019182525092915050565b80516020820151604090920191600091906111e4828261174b565b9150601085901c60025b81811015611197578551925060208601955061120a848461174b565b93506001016111ee565b80516020909101805190916000919061122e82828761175a565b84525091949350505050565b80516000906112518160ff8616600887901c61175a565b835250909392505050565b80516000906112518160ff8616600887901c6117df565b805160208201516040909201916000919061128e81836128a1565b9150601085901c60025b8181101561119757855160209096019592506112b483856128a1565b9350600101611298565b80516020820151604090920191600091906112d981836128b4565b9150601085901c60025b8181101561119757855160209096019592506112ff83856128b4565b93506001016112e3565b805160208201516040909201916000919061132481836129e8565b9150601085901c60025b81811015611197578551602090960195925061134a83856129e8565b935060010161132e565b805160208201516040909201916000919080821015611371578091505b601085901c60025b81811015611197578551925060208601955082841015611397578293505b600101611379565b8051602082015160409092019160009190808211156113bc578091505b601085901c60025b818110156111975785519250602086019550828411156113e2578293505b6001016113c4565b805160208201516040909201916000919061140581836129f4565b9150601085901c60025b81811015611197578551602090960195925061142b83856129f4565b935060010161140f565b80516020820151604090920191600091906114508183612a08565b9150601085901c60025b8181101561119757855160209096019592506114768385612a08565b935060010161145a565b805160208201516040909201916000919061149b8183612a1f565b9150601085901c60025b8181101561119757855160209096019592506114c18385612a1f565b93506001016114a5565b8051606084015160009190829081906114e49084611841565b915091508160000361122e5760a087015160808801516040517f669e48aa00000000000000000000000000000000000000000000000000000000815260048101919091526024810185905260009173ffffffffffffffffffffffffffffffffffffffff169063669e48aa90604401602060405180830381865afa15801561156f573d6000803e3d6000fd5b505050506040513d601f19601f820116820180604052508101906115939190612a32565b60608901519091506115a690858361188b565b60608901528552610f31565b80516020820151606085015160409093019260009291906115d490838361188b565b606087015250829150509392505050565b80516020808301516040808501516060860151600188161590940290950101936000939284806116178685858861191d565b91509150818852600189161561162e578060208901525b509598975050505050505050565b80516020808301516040808501516060860151600188161590940290950101936000939284806116178685858861195f565b60606000825160020267ffffffffffffffff81111561168f5761168f612404565b6040519080825280601f01601f1916602001820160405280156116b9576020820181803683370190505b50905061ffff80196020850160208651028101600285015b818310156116f3578051835186169085161781526020909201916002016116d1565b50939695505050505050565b60008061170b8461198b565b6002026001019050600061171f85856119a9565b949091019093016020019392505050565b6000610c9e61174884670de0b6b3a764000085611a21565b90565b6000610c9e6117488484611b2c565b6000826012111561178f57601283900360028316156117855761177d8582611c33565b915050610c9e565b61177d8582611cc3565b60128311156117d8577fffffffffffffffffffffffffffffffffffffffffffffffffffffffffffffffee830160018316156117ce5761177d8582611cfb565b61177d8582611d4d565b5082610c9e565b6000826012111561180257601283900360018316156117ce5761177d8582611cfb565b60128311156117d8577fffffffffffffffffffffffffffffffffffffffffffffffffffffffffffffffee830160028316156117855761177d8582611c33565b600080826000526010600f6020600020060261ffff85821c165b80156118825780518503611879576001935060208101519250611882565b6040015161185b565b50509250929050565b6000826000526010600f6020600020060261ffff85821c16805b80156118bc57805186146118bc57604001516118a5565b8015801561190a5760405191506060820160405286825285602083015282604083015260028860f01c0161ffff60f01b1989168160f01b1798505061ffff841b19881682851b179750611911565b8560208301525b50959695505050505050565b6000806000806000611930898989611d70565b9250925092508560001461194e57611949868484611f14565b611951565b60005b999098509650505050505050565b6000806000806000611972898989611d70565b9250925092508560001461194e57611949868484612094565b6000815160000361199e57506000919050565b506020015160001a90565b6002810282016003015161ffff1660006119c28461198b565b8451909150600560028302840101908111806119de5750818410155b15611a195784846040517fd3fc97bd000000000000000000000000000000000000000000000000000000008152600401610989929190612a4b565b505092915050565b600080807fffffffffffffffffffffffffffffffffffffffffffffffffffffffffffffffff85870985870292508281108382030391505080600003611a7957838281611a6f57611a6f612843565b0492505050610c9e565b838110611ac3576040517f63a05778000000000000000000000000000000000000000000000000000000008152600481018790526024810186905260448101859052606401610989565b60008486880960026001871981018816978890046003810283188082028403028082028403028082028403028082028403028082028403029081029092039091026000889003889004909101858311909403939093029303949094049190911702949350505050565b600080807fffffffffffffffffffffffffffffffffffffffffffffffffffffffffffffffff84860984860292508281108382030391505080600003611b7e5750670de0b6b3a7640000900490506101a1565b670de0b6b3a76400008110611bc9576040517f5173648d0000000000000000000000000000000000000000000000000000000081526004810186905260248101859052604401610989565b6000670de0b6b3a7640000858709620400008185030493109091037d40000000000000000000000000000000000000000000000000000000000002919091177faccb18165bd6fe31ae1cf318dc5b51eee0e1ba569b88cd74c1773b91fac106690291505092915050565b6000604e8210611c73578215611c69577fffffffffffffffffffffffffffffffffffffffffffffffffffffffffffffffff611c6c565b60005b90506101a1565b50600a81900a8281029083818381611c8d57611c8d612843565b0414611cb9577fffffffffffffffffffffffffffffffffffffffffffffffffffffffffffffffff611cbb565b815b949350505050565b600a81900a611cd28184612a08565b9050604e82106101a1578215611cf257611ced82600a6129e8565b610c9e565b50600092915050565b6000604e8210611d1f578215611d12576001611d15565b60005b60ff1690506101a1565b600a82900a808481611d3357611d33612843565b0491508082028414611d46576001820191505b5092915050565b6000604e821015611cf25781600a0a8381611d6a57611d6a612843565b04610c9e565b600080600080611d80868661220f565b506040517fe6a4390500000000000000000000000000000000000000000000000000000000815273ffffffffffffffffffffffffffffffffffffffff8881166004830152878116602483015291925060009189169063e6a4390590604401602060405180830381865afa158015611dfb573d6000803e3d6000fd5b505050506040513d601f19601f82011682018060405250810190611e1f9190612a6d565b905060008060008373ffffffffffffffffffffffffffffffffffffffff16630902f1ac6040518163ffffffff1660e01b8152600401606060405180830381865afa158015611e71573d6000803e3d6000fd5b505050506040513d601f19601f82011682018060405250810190611e959190612aa8565b63ffffffff1692506dffffffffffffffffffffffffffff1692506dffffffffffffffffffffffffffff1692508473ffffffffffffffffffffffffffffffffffffffff168a73ffffffffffffffffffffffffffffffffffffffff1614611efc57818382611f00565b8282825b919d909c50909a5098505050505050505050565b6000808411611fa5576040517f08c379a000000000000000000000000000000000000000000000000000000000815260206004820152602c60248201527f556e697377617056324c6962726172793a20494e53554646494349454e545f4f60448201527f55545055545f414d4f554e5400000000000000000000000000000000000000006064820152608401610989565b600083118015611fb55750600082115b612041576040517f08c379a000000000000000000000000000000000000000000000000000000000815260206004820152602860248201527f556e697377617056324c6962726172793a20494e53554646494349454e545f4c60448201527f49515549444954590000000000000000000000000000000000000000000000006064820152608401610989565b600061204d8585612a08565b612059906103e8612a08565b905060006120678685612a1f565b612073906103e5612a08565b905061207f81836128b4565b61208a9060016128a1565b9695505050505050565b6000808411612125576040517f08c379a000000000000000000000000000000000000000000000000000000000815260206004820152602b60248201527f556e697377617056324c6962726172793a20494e53554646494349454e545f4960448201527f4e5055545f414d4f554e540000000000000000000000000000000000000000006064820152608401610989565b6000831180156121355750600082115b6121c1576040517f08c379a000000000000000000000000000000000000000000000000000000000815260206004820152602860248201527f556e697377617056324c6962726172793a20494e53554646494349454e545f4c60448201527f49515549444954590000000000000000000000000000000000000000000000006064820152608401610989565b60006121cf856103e5612a08565b905060006121dd8483612a08565b90506000826121ee876103e8612a08565b6121f891906128a1565b905061220481836128b4565b979650505050505050565b6000808273ffffffffffffffffffffffffffffffffffffffff168473ffffffffffffffffffffffffffffffffffffffff16036122cd576040517f08c379a000000000000000000000000000000000000000000000000000000000815260206004820152602560248201527f556e697377617056324c6962726172793a204944454e544943414c5f4144445260448201527f45535345530000000000000000000000000000000000000000000000000000006064820152608401610989565b8273ffffffffffffffffffffffffffffffffffffffff168473ffffffffffffffffffffffffffffffffffffffff161061230757828461230a565b83835b909250905073ffffffffffffffffffffffffffffffffffffffff821661238c576040517f08c379a000000000000000000000000000000000000000000000000000000000815260206004820152601e60248201527f556e697377617056324c6962726172793a205a45524f5f4144445245535300006044820152606401610989565b9250929050565b61239b612af8565b565b6000602082840312156123af57600080fd5b81357fffffffff0000000000000000000000000000000000000000000000000000000081168114610c9e57600080fd5b73ffffffffffffffffffffffffffffffffffffffff8116811461240157600080fd5b50565b7f4e487b7100000000000000000000000000000000000000000000000000000000600052604160045260246000fd5b604051601f82017fffffffffffffffffffffffffffffffffffffffffffffffffffffffffffffffe016810167ffffffffffffffff8111828210171561247a5761247a612404565b604052919050565b600067ffffffffffffffff82111561249c5761249c612404565b5060051b60200190565b600082601f8301126124b757600080fd5b813560206124cc6124c783612482565b612433565b82815260059290921b840181019181810190868411156124eb57600080fd5b8286015b8481101561250657803583529183019183016124ef565b509695505050505050565b600082601f83011261252257600080fd5b813560206125326124c783612482565b82815260059290921b8401810191818101908684111561255157600080fd5b8286015b8481101561250657803567ffffffffffffffff8111156125755760008081fd5b6125838986838b01016124a6565b845250918301918301612555565b600080600080608085870312156125a757600080fd5b84356125b2816123df565b93506020850135925060408501359150606085013567ffffffffffffffff8111156125dc57600080fd5b6125e887828801612511565b91505092959194509250565b600081518084526020808501945080840160005b8381101561262457815187529582019590820190600101612608565b509495945050505050565b60408152600061264260408301856125f4565b828103602084015261106281856125f4565b803561ffff8116811461266657600080fd5b919050565b600080600080600080600060e0888a03121561268657600080fd5b8735612691816123df565b96506020888101359650604089013567ffffffffffffffff808211156126b657600080fd5b818b0191508b601f8301126126ca57600080fd5b8135818111156126dc576126dc612404565b61270c847fffffffffffffffffffffffffffffffffffffffffffffffffffffffffffffffe0601f84011601612433565b8181528d8583860101111561272057600080fd5b81858501868301376000858383010152809950505061274160608c01612654565b965060808b0135955060a08b013592508083111561275e57600080fd5b61276a8c848d01612511565b945060c08b013592508083111561278057600080fd5b505061278e8a828b016124a6565b91505092959891949750929550565b6000815180845260005b818110156127c3576020818501810151868301820152016127a7565b5060006020828601015260207fffffffffffffffffffffffffffffffffffffffffffffffffffffffffffffffe0601f83011685010191505092915050565b602081526000610c9e602083018461279d565b7f4e487b7100000000000000000000000000000000000000000000000000000000600052603260045260246000fd5b7f4e487b7100000000000000000000000000000000000000000000000000000000600052601260045260246000fd5b7f4e487b7100000000000000000000000000000000000000000000000000000000600052601160045260246000fd5b808201808211156101a1576101a1612872565b6000826128c3576128c3612843565b500490565b600181815b8085111561292157817fffffffffffffffffffffffffffffffffffffffffffffffffffffffffffffffff0482111561290757612907612872565b8085161561291457918102915b93841c93908002906128cd565b509250929050565b600082612938575060016101a1565b81612945575060006101a1565b816001811461295b576002811461296557612981565b60019150506101a1565b60ff84111561297657612976612872565b50506001821b6101a1565b5060208310610133831016604e8410600b84101617156129a4575081810a6101a1565b6129ae83836128c8565b807fffffffffffffffffffffffffffffffffffffffffffffffffffffffffffffffff048211156129e0576129e0612872565b029392505050565b6000610c9e8383612929565b600082612a0357612a03612843565b500690565b80820281158282048414176101a1576101a1612872565b818103818111156101a1576101a1612872565b600060208284031215612a4457600080fd5b5051919050565b604081526000612a5e604083018561279d565b90508260208301529392505050565b600060208284031215612a7f57600080fd5b8151610c9e816123df565b80516dffffffffffffffffffffffffffff8116811461266657600080fd5b600080600060608486031215612abd57600080fd5b612ac684612a8a565b9250612ad460208501612a8a565b9150604084015163ffffffff81168114612aed57600080fd5b809150509250925092565b7f4e487b7100000000000000000000000000000000000000000000000000000000600052605160045260246000fdfe0c590ca50ce00dc40dfe0e2d0e5c0e5c0eab0eda0f3c0fc4106b107f10d510e910fe111811231137114c11c91214123a125c1273127312be130913541354139f139f13ea14351480148014cb15b215e5163c",
    "linkReferences": {}
  },
  "methodIdentifiers": {
    "eval(address,uint256,uint256,uint256[][])": "6715f825",
    "functionPointers()": "f933c72f",
    "offchainDebugEval(address,uint256,bytes,uint16,uint256,uint256[][],uint256[])": "758c13b6",
    "supportsInterface(bytes4)": "01ffc9a7"
  },
  "id": 81
}