{
  "abi": [
    {
      "inputs": [
        {
          "components": [
            {
              "internalType": "address",
              "name": "interpreter",
              "type": "address"
            },
            {
              "internalType": "address",
              "name": "store",
              "type": "address"
            },
            {
              "internalType": "bytes",
              "name": "authoringMeta",
              "type": "bytes"
            }
          ],
          "internalType": "struct RainterpreterExpressionDeployerConstructionConfig",
          "name": "config",
          "type": "tuple"
        }
      ],
      "stateMutability": "nonpayable",
      "type": "constructor"
    },
    {
      "inputs": [
        {
          "internalType": "bytes32",
          "name": "expected",
          "type": "bytes32"
        },
        {
          "internalType": "bytes32",
          "name": "actual",
          "type": "bytes32"
        }
      ],
      "name": "AuthoringMetaHashMismatch",
      "type": "error"
    },
    {
      "inputs": [
        {
          "internalType": "uint256",
          "name": "dynamicLength",
          "type": "uint256"
        },
        {
          "internalType": "uint256",
          "name": "standardOpsLength",
          "type": "uint256"
        }
      ],
      "name": "BadDynamicLength",
      "type": "error"
    },
    {
      "inputs": [
        {
          "internalType": "uint256",
          "name": "opIndex",
          "type": "uint256"
        },
        {
          "internalType": "uint256",
          "name": "calculatedInputs",
          "type": "uint256"
        },
        {
          "internalType": "uint256",
          "name": "bytecodeInputs",
          "type": "uint256"
        }
      ],
      "name": "BadOpInputsLength",
      "type": "error"
    },
    {
      "inputs": [],
      "name": "DanglingSource",
      "type": "error"
    },
    {
      "inputs": [
        {
          "internalType": "uint256",
          "name": "offset",
          "type": "uint256"
        }
      ],
      "name": "DecimalLiteralOverflow",
      "type": "error"
    },
    {
      "inputs": [],
      "name": "DuplicateFingerprint",
      "type": "error"
    },
    {
      "inputs": [
        {
          "internalType": "uint256",
          "name": "errorOffset",
          "type": "uint256"
        }
      ],
      "name": "DuplicateLHSItem",
      "type": "error"
    },
    {
      "inputs": [
        {
          "internalType": "uint256",
          "name": "entrypointIndex",
          "type": "uint256"
        },
        {
          "internalType": "uint256",
          "name": "outputsLength",
          "type": "uint256"
        },
        {
          "internalType": "uint256",
          "name": "minOutputs",
          "type": "uint256"
        }
      ],
      "name": "EntrypointMinOutputs",
      "type": "error"
    },
    {
      "inputs": [
        {
          "internalType": "uint256",
          "name": "expectedEntrypoints",
          "type": "uint256"
        },
        {
          "internalType": "uint256",
          "name": "actualEntrypoints",
          "type": "uint256"
        }
      ],
      "name": "EntrypointMissing",
      "type": "error"
    },
    {
      "inputs": [
        {
          "internalType": "uint256",
          "name": "entrypointIndex",
          "type": "uint256"
        },
        {
          "internalType": "uint256",
          "name": "inputsLength",
          "type": "uint256"
        }
      ],
      "name": "EntrypointNonZeroInput",
      "type": "error"
    },
    {
      "inputs": [
        {
          "internalType": "uint256",
          "name": "offset",
          "type": "uint256"
        }
      ],
      "name": "ExcessLHSItems",
      "type": "error"
    },
    {
      "inputs": [
        {
          "internalType": "uint256",
          "name": "offset",
          "type": "uint256"
        }
      ],
      "name": "ExcessRHSItems",
      "type": "error"
    },
    {
      "inputs": [
        {
          "internalType": "uint256",
          "name": "offset",
          "type": "uint256"
        }
      ],
      "name": "ExpectedLeftParen",
      "type": "error"
    },
    {
      "inputs": [
        {
          "internalType": "uint256",
          "name": "offset",
          "type": "uint256"
        }
      ],
      "name": "ExpectedOperand",
      "type": "error"
    },
    {
      "inputs": [
        {
          "internalType": "uint256",
          "name": "offset",
          "type": "uint256"
        }
      ],
      "name": "HexLiteralOverflow",
      "type": "error"
    },
    {
      "inputs": [
        {
          "internalType": "uint256",
          "name": "offset",
          "type": "uint256"
        }
      ],
      "name": "MalformedCommentStart",
      "type": "error"
    },
    {
      "inputs": [
        {
          "internalType": "uint256",
          "name": "offset",
          "type": "uint256"
        }
      ],
      "name": "MalformedExponentDigits",
      "type": "error"
    },
    {
      "inputs": [
        {
          "internalType": "uint256",
          "name": "offset",
          "type": "uint256"
        }
      ],
      "name": "MalformedHexLiteral",
      "type": "error"
    },
    {
      "inputs": [],
      "name": "MaxSources",
      "type": "error"
    },
    {
      "inputs": [
        {
          "internalType": "uint256",
          "name": "offset",
          "type": "uint256"
        }
      ],
      "name": "MissingFinalSemi",
      "type": "error"
    },
    {
      "inputs": [
        {
          "internalType": "uint256",
          "name": "offset",
          "type": "uint256"
        }
      ],
      "name": "NotAcceptingInputs",
      "type": "error"
    },
    {
      "inputs": [
        {
          "internalType": "uint256",
          "name": "offset",
          "type": "uint256"
        }
      ],
      "name": "OddLengthHexLiteral",
      "type": "error"
    },
    {
      "inputs": [
        {
          "internalType": "uint256",
          "name": "offset",
          "type": "uint256"
        }
      ],
      "name": "OperandOverflow",
      "type": "error"
    },
    {
      "inputs": [
        {
          "internalType": "uint256",
          "name": "opIndex",
          "type": "uint256"
        },
        {
          "internalType": "uint256",
          "name": "constantsLength",
          "type": "uint256"
        },
        {
          "internalType": "uint256",
          "name": "constantRead",
          "type": "uint256"
        }
      ],
      "name": "OutOfBoundsConstantRead",
      "type": "error"
    },
    {
      "inputs": [
        {
          "internalType": "uint256",
          "name": "opIndex",
          "type": "uint256"
        },
        {
          "internalType": "uint256",
          "name": "stackTopIndex",
          "type": "uint256"
        },
        {
          "internalType": "uint256",
          "name": "stackRead",
          "type": "uint256"
        }
      ],
      "name": "OutOfBoundsStackRead",
      "type": "error"
    },
    {
      "inputs": [],
      "name": "ParenOverflow",
      "type": "error"
    },
    {
      "inputs": [],
      "name": "ParserOutOfBounds",
      "type": "error"
    },
    {
      "inputs": [
        {
          "internalType": "bytes",
          "name": "bytecode",
          "type": "bytes"
        },
        {
          "internalType": "uint256",
          "name": "sourceIndex",
          "type": "uint256"
        }
      ],
      "name": "SourceOffsetOutOfBounds",
      "type": "error"
    },
    {
      "inputs": [
        {
          "internalType": "uint256",
          "name": "stackMaxIndex",
          "type": "uint256"
        },
        {
          "internalType": "uint256",
          "name": "bytecodeAllocation",
          "type": "uint256"
        }
      ],
      "name": "StackAllocationMismatch",
      "type": "error"
    },
    {
      "inputs": [
        {
          "internalType": "uint256",
          "name": "stackIndex",
          "type": "uint256"
        },
        {
          "internalType": "uint256",
          "name": "bytecodeOutputs",
          "type": "uint256"
        }
      ],
      "name": "StackOutputsMismatch",
      "type": "error"
    },
    {
      "inputs": [],
      "name": "StackOverflow",
      "type": "error"
    },
    {
      "inputs": [
        {
          "internalType": "uint256",
          "name": "opIndex",
          "type": "uint256"
        },
        {
          "internalType": "uint256",
          "name": "stackIndex",
          "type": "uint256"
        },
        {
          "internalType": "uint256",
          "name": "stackHighwater",
          "type": "uint256"
        }
      ],
      "name": "StackUnderflowHighwater",
      "type": "error"
    },
    {
      "inputs": [
        {
          "internalType": "uint256",
          "name": "offset",
          "type": "uint256"
        }
      ],
      "name": "UnclosedLeftParen",
      "type": "error"
    },
    {
      "inputs": [
        {
          "internalType": "uint256",
          "name": "offset",
          "type": "uint256"
        }
      ],
      "name": "UnclosedOperand",
      "type": "error"
    },
    {
      "inputs": [
        {
          "internalType": "uint256",
          "name": "offset",
          "type": "uint256"
        }
      ],
      "name": "UnexpectedComment",
      "type": "error"
    },
    {
      "inputs": [
        {
          "internalType": "bytes32",
          "name": "actualBytecodeHash",
          "type": "bytes32"
        }
      ],
      "name": "UnexpectedInterpreterBytecodeHash",
      "type": "error"
    },
    {
      "inputs": [
        {
          "internalType": "uint256",
          "name": "offset",
          "type": "uint256"
        }
      ],
      "name": "UnexpectedLHSChar",
      "type": "error"
    },
    {
      "inputs": [
        {
          "internalType": "bytes32",
          "name": "actualOpMeta",
          "type": "bytes32"
        }
      ],
      "name": "UnexpectedOpMetaHash",
      "type": "error"
    },
    {
      "inputs": [
        {
          "internalType": "uint256",
          "name": "offset",
          "type": "uint256"
        }
      ],
      "name": "UnexpectedOperand",
      "type": "error"
    },
    {
      "inputs": [
        {
          "internalType": "bytes",
          "name": "actualPointers",
          "type": "bytes"
        }
      ],
      "name": "UnexpectedPointers",
      "type": "error"
    },
    {
      "inputs": [
        {
          "internalType": "uint256",
          "name": "offset",
          "type": "uint256"
        }
      ],
      "name": "UnexpectedRHSChar",
      "type": "error"
    },
    {
      "inputs": [
        {
          "internalType": "uint256",
          "name": "offset",
          "type": "uint256"
        }
      ],
      "name": "UnexpectedRightParen",
      "type": "error"
    },
    {
      "inputs": [
        {
          "internalType": "bytes32",
          "name": "actualBytecodeHash",
          "type": "bytes32"
        }
      ],
      "name": "UnexpectedStoreBytecodeHash",
      "type": "error"
    },
    {
      "inputs": [
        {
          "internalType": "uint256",
          "name": "offset",
          "type": "uint256"
        }
      ],
      "name": "UnknownWord",
      "type": "error"
    },
    {
      "inputs": [
        {
          "internalType": "uint256",
          "name": "offset",
          "type": "uint256"
        }
      ],
      "name": "UnsupportedLiteralType",
      "type": "error"
    },
    {
      "inputs": [
        {
          "internalType": "string",
          "name": "word",
          "type": "string"
        }
      ],
      "name": "WordSize",
      "type": "error"
    },
    {
      "inputs": [],
      "name": "WriteError",
      "type": "error"
    },
    {
      "inputs": [
        {
          "internalType": "uint256",
          "name": "offset",
          "type": "uint256"
        }
      ],
      "name": "ZeroLengthDecimal",
      "type": "error"
    },
    {
      "inputs": [
        {
          "internalType": "uint256",
          "name": "offset",
          "type": "uint256"
        }
      ],
      "name": "ZeroLengthHexLiteral",
      "type": "error"
    },
    {
      "anonymous": false,
      "inputs": [
        {
          "indexed": false,
          "internalType": "address",
          "name": "sender",
          "type": "address"
        },
        {
          "indexed": false,
          "internalType": "address",
          "name": "deployer",
          "type": "address"
        },
        {
          "indexed": false,
          "internalType": "address",
          "name": "interpreter",
          "type": "address"
        },
        {
          "indexed": false,
          "internalType": "address",
          "name": "store",
          "type": "address"
        },
        {
          "indexed": false,
          "internalType": "bytes",
          "name": "opMeta",
          "type": "bytes"
        }
      ],
      "name": "DISpair",
      "type": "event"
    },
    {
      "anonymous": false,
      "inputs": [
        {
          "indexed": false,
          "internalType": "address",
          "name": "sender",
          "type": "address"
        },
        {
          "indexed": false,
          "internalType": "address",
          "name": "expression",
          "type": "address"
        }
      ],
      "name": "ExpressionAddress",
      "type": "event"
    },
    {
      "anonymous": false,
      "inputs": [
        {
          "indexed": false,
          "internalType": "address",
          "name": "sender",
          "type": "address"
        },
        {
          "indexed": false,
          "internalType": "bytes",
          "name": "bytecode",
          "type": "bytes"
        },
        {
          "indexed": false,
          "internalType": "uint256[]",
          "name": "constants",
          "type": "uint256[]"
        },
        {
          "indexed": false,
          "internalType": "uint256[]",
          "name": "minOutputs",
          "type": "uint256[]"
        }
      ],
      "name": "NewExpression",
      "type": "event"
    },
    {
      "inputs": [],
      "name": "authoringMetaHash",
      "outputs": [
        {
          "internalType": "bytes32",
          "name": "",
          "type": "bytes32"
        }
      ],
      "stateMutability": "pure",
      "type": "function"
    },
    {
      "inputs": [
        {
          "internalType": "bytes",
          "name": "authoringMeta",
          "type": "bytes"
        }
      ],
      "name": "buildParseMeta",
      "outputs": [
        {
          "internalType": "bytes",
          "name": "",
          "type": "bytes"
        }
      ],
      "stateMutability": "pure",
      "type": "function"
    },
    {
      "inputs": [
        {
          "internalType": "bytes",
          "name": "bytecode",
          "type": "bytes"
        },
        {
          "internalType": "uint256[]",
          "name": "constants",
          "type": "uint256[]"
        },
        {
          "internalType": "uint256[]",
          "name": "minOutputs",
          "type": "uint256[]"
        }
      ],
      "name": "deployExpression",
      "outputs": [
        {
          "internalType": "contract IInterpreterV1",
          "name": "",
          "type": "address"
        },
        {
          "internalType": "contract IInterpreterStoreV1",
          "name": "",
          "type": "address"
        },
        {
          "internalType": "address",
          "name": "",
          "type": "address"
        }
      ],
      "stateMutability": "nonpayable",
      "type": "function"
    },
    {
      "inputs": [],
      "name": "iInterpreter",
      "outputs": [
        {
          "internalType": "contract IInterpreterV1",
          "name": "",
          "type": "address"
        }
      ],
      "stateMutability": "view",
      "type": "function"
    },
    {
      "inputs": [],
      "name": "iStore",
      "outputs": [
        {
          "internalType": "contract IInterpreterStoreV1",
          "name": "",
          "type": "address"
        }
      ],
      "stateMutability": "view",
      "type": "function"
    },
    {
      "inputs": [
        {
          "internalType": "bytes",
          "name": "bytecode",
          "type": "bytes"
        },
        {
          "internalType": "uint256[]",
          "name": "constants",
          "type": "uint256[]"
        },
        {
          "internalType": "uint256[]",
          "name": "minOutputs",
          "type": "uint256[]"
        }
      ],
      "name": "integrityCheck",
      "outputs": [],
      "stateMutability": "view",
      "type": "function"
    },
    {
      "inputs": [],
      "name": "integrityFunctionPointers",
      "outputs": [
        {
          "internalType": "bytes",
          "name": "",
          "type": "bytes"
        }
      ],
      "stateMutability": "view",
      "type": "function"
    },
    {
      "inputs": [
        {
          "internalType": "bytes",
          "name": "data",
          "type": "bytes"
        }
      ],
      "name": "parse",
      "outputs": [
        {
          "internalType": "bytes",
          "name": "",
          "type": "bytes"
        },
        {
          "internalType": "uint256[]",
          "name": "",
          "type": "uint256[]"
        }
      ],
      "stateMutability": "pure",
      "type": "function"
    },
    {
      "inputs": [],
      "name": "parseMeta",
      "outputs": [
        {
          "internalType": "bytes",
          "name": "",
          "type": "bytes"
        }
      ],
      "stateMutability": "pure",
      "type": "function"
    },
    {
      "inputs": [
        {
          "internalType": "bytes4",
          "name": "interfaceId_",
          "type": "bytes4"
        }
      ],
      "name": "supportsInterface",
      "outputs": [
        {
          "internalType": "bool",
          "name": "",
          "type": "bool"
        }
      ],
      "stateMutability": "view",
      "type": "function"
    }
  ],
  "bytecode": {
    "object": "0x60c06040523480156200001157600080fd5b5060405162004b1f38038062004b1f833981016040819052620000349162000449565b805160208201516001600160a01b03808316608081905290821660a0526040805163f933c72f60e01b815290516000929163f933c72f91600480830192869291908290030181865afa1580156200008f573d6000803e3d6000fd5b505050506040513d6000823e601f3d908101601f19168201604052620000b99190810190620004fa565b905060405180608001604052806052815260200162004acd6052913980519060200120818051906020012014620001105780604051634c1af20160e11b815260040162000107919062000568565b60405180910390fd5b823f7faa8f18bb20fc23e48b3d51bcb3ed2a06b174be576927d4cc0554fd5e781f7b1981146200015757604051630eec293f60e11b81526004810182905260240162000107565b823f7fd6130168250d3957ae34f8026c2bdbd7e21d35bb202e8540a9b3abcbc232ddb681146200019e5760405163cc0415fd60e01b81526004810182905260240162000107565b604086015180516020909101207fa4d558de3cab056effa790499ea313ff3d962d95513646614a9a29073f44aeb18114620001f0576040516343d0fe5760e11b81526004810182905260240162000107565b7f1788931a083e1bfada6cb062b5426ea97c7866b814b4d1173909e4018f2122f1333088888b604001516040516200022d95949392919062000584565b60405180910390a1604080518082018252601581527f4945787072657373696f6e4465706c6f79657256320000000000000000000000602082015290516365ba36c160e01b8152731820a4b7618bde71dce8cdc73aab6c95905fad24916329965a1d91309184916365ba36c191620002a89160040162000568565b602060405180830381865afa158015620002c6573d6000803e3d6000fd5b505050506040513d601f19601f82011682018060405250810190620002ec9190620005cd565b6040516001600160e01b031960e085901b1681526001600160a01b0390921660048301526024820152306044820152606401600060405180830381600087803b1580156200033957600080fd5b505af11580156200034e573d6000803e3d6000fd5b5050505050505050505050620005e7565b634e487b7160e01b600052604160045260246000fd5b80516001600160a01b03811681146200038d57600080fd5b919050565b60005b83811015620003af57818101518382015260200162000395565b50506000910152565b600082601f830112620003ca57600080fd5b81516001600160401b0380821115620003e757620003e76200035f565b604051601f8301601f19908116603f011681019082821181831017156200041257620004126200035f565b816040528381528660208588010111156200042c57600080fd5b6200043f84602083016020890162000392565b9695505050505050565b6000602082840312156200045c57600080fd5b81516001600160401b03808211156200047457600080fd5b90830190606082860312156200048957600080fd5b604051606081018181108382111715620004a757620004a76200035f565b604052620004b58362000375565b8152620004c56020840162000375565b6020820152604083015182811115620004dd57600080fd5b620004eb87828601620003b8565b60408301525095945050505050565b6000602082840312156200050d57600080fd5b81516001600160401b038111156200052457600080fd5b6200053284828501620003b8565b949350505050565b600081518084526200055481602086016020860162000392565b601f01601f19169290920160200192915050565b6020815260006200057d60208301846200053a565b9392505050565b6001600160a01b038681168252858116602083015284811660408301528316606082015260a060808201819052600090620005c2908301846200053a565b979650505050505050565b600060208284031215620005e057600080fd5b5051919050565b60805160a0516144b26200061b60003960008181610190015261044d0152600081816101f1015261042a01526144b26000f3fe608060405234801561001057600080fd5b50600436106100be5760003560e01c8063c19423bc11610076578063f0cfdd371161005b578063f0cfdd37146101ec578063fab4087a14610213578063ffc257041461023457600080fd5b8063c19423bc1461018b578063cbb7d173146101d757600080fd5b80638d614591116100a75780638d61459114610135578063a600bd0a1461014a578063b6c7175a1461015d57600080fd5b806301ffc9a7146100c357806331a66b65146100eb575b600080fd5b6100d66100d1366004613d18565b61023c565b60405190151581526020015b60405180910390f35b6100fe6100f9366004613f2e565b6102d5565b6040805173ffffffffffffffffffffffffffffffffffffffff948516815292841660208401529216918101919091526060016100e2565b61013d61047c565b6040516100e29190614024565b61013d610158366004614037565b61048b565b6040517fa4d558de3cab056effa790499ea313ff3d962d95513646614a9a29073f44aeb181526020016100e2565b6101b27f000000000000000000000000000000000000000000000000000000000000000081565b60405173ffffffffffffffffffffffffffffffffffffffff90911681526020016100e2565b6101ea6101e5366004613f2e565b610547565b005b6101b27f000000000000000000000000000000000000000000000000000000000000000081565b610226610221366004614037565b610570565b6040516100e29291906140a7565b61013d61058d565b60007fffffffff0000000000000000000000000000000000000000000000000000000082167f31a66b650000000000000000000000000000000000000000000000000000000014806102cf57507fffffffff0000000000000000000000000000000000000000000000000000000082167f01ffc9a700000000000000000000000000000000000000000000000000000000145b92915050565b60008060006102e5868686610547565b7f4a48f556905d90b4a58742999556994182322843167010b59bf8149724db51cf3387878760405161031a94939291906140d5565b60405180910390a18451865160009182916103bd916020020160400160408051602c83017fffffffffffffffffffffffffffffffffffffffffffffffffffffffffffffffe01681019091527effff0000000000000000000000000000000000000000000000000000000000600190920160e81b919091167f61000080600c6000396000f3000000000000000000000000000000000000000017815290600d820190565b915091506103cc8189896105ae565b60006103d7836105ec565b6040805133815273ffffffffffffffffffffffffffffffffffffffff831660208201529192507fce6e4a4a7b561c65155990775d2faf8a581292f97859ce67e366fd53686b31f1910160405180910390a17f000000000000000000000000000000000000000000000000000000000000000095507f00000000000000000000000000000000000000000000000000000000000000009450925050505b93509350939050565b606061048661065a565b905090565b805160208201206060907fa4d558de3cab056effa790499ea313ff3d962d95513646614a9a29073f44aeb1811461051c576040517f26cc0fec0000000000000000000000000000000000000000000000000000000081527fa4d558de3cab056effa790499ea313ff3d962d95513646614a9a29073f44aeb16004820152602481018290526044015b60405180910390fd5b6000838060200190518101906105329190614135565b905061053f816002610837565b949350505050565b61056b60405180608001604052806052815260200161437160529139848484610b64565b505050565b6060806105848361057f61058d565b610f23565b91509150915091565b606060405180610120016040528060ef81526020016143c360ef9139905090565b80600182510160200281015b808210156105d55781518552602094850194909101906105ba565b505061056b6105e18390565b84845160200161178b565b6000806000600d9050835160e81c61ffff168101846000f0915073ffffffffffffffffffffffffffffffffffffffff8216610653576040517f08d4abb600000000000000000000000000000000000000000000000000000000815260040160405180910390fd5b5092915050565b6060613d0e60006029905080915060006040518061054001604052808467ffffffffffffffff1667ffffffffffffffff1681526020016117f1815260200161186b81526020016118d281526020016118dc81526020016118d281526020016118d281526020016118d281526020016118d281526020016118d281526020016118e681526020016119088152602001611932815260200161195481526020016118e681526020016119548152602001611954815260200161195e8152602001611968815260200161195481526020016119548152602001611971815260200161197181526020016119548152602001611968815260200161196881526020016119718152602001611971815260200161197181526020016119718152602001611971815260200161197181526020016119718152602001611971815260200161197181526020016119718152602001611971815260200161197181526020016119688152602001611988815260200161199281526020016119928152509050606081905060298151146108255780516040517fc8b56901000000000000000000000000000000000000000000000000000000008152600481019190915260248101849052604401610513565b61082e816119a1565b94505050505090565b6060808060008060ff861667ffffffffffffffff81111561085a5761085a613d61565b604051908082528060200260200182016040528015610883578160200160208202803683370190505b5093508560ff1667ffffffffffffffff8111156108a2576108a2613d61565b6040519080825280602002602001820160405280156108cb578160200160208202803683370190505b509250865b805115610940576000806108e383611a32565b8951909550919350915082908890869081106109015761090161429b565b602002602001019060ff16908160ff1681525050808685815181106109285761092861429b565b602090810291909101015250506001909101906108d0565b5060006005885102602183026001010190508067ffffffffffffffff81111561096b5761096b613d61565b6040519080825280601f01601f191660200182016040528015610995576020820181803683370190505b50955081602087015360005b828110156109d357806021026021880101816020026020018701518153602080830287010151600191820152016109a1565b50506021028401600601905060005b8651811015610b5a576000805b6000806000878581518110610a0657610a0661429b565b60200260200101519050600080610a568b8881518110610a2857610a2861429b565b602002602001015160ff168f8a81518110610a4557610a4561429b565b602002602001015160000151611b60565b925090506005600087610a8c7fffffffffffffffffffffffffffffffffffffffffffffffffffffffffffffffff85018716611b82565b01919091028a01805190955062ffffff84811693501690508015610b0157818103610ae3576040517f59293c5100000000000000000000000000000000000000000000000000000000815260040160405180910390fd5b600190970196610af284611b82565b870196505050505050506109ef565b8195505050505060188b8681518110610b1c57610b1c61429b565b60200260200101516020015160ff16901b602086901b17821791506000600160056001901b03199050828183511617825250505050506001016109e2565b5050505092915050565b6000610b6f84611c5b565b90508082511115610bb95781516040517ffd9e1af4000000000000000000000000000000000000000000000000000000008152600481019190915260248101829052604401610513565b6020850160005b82811015610f1a576000610bd48783611c79565b90506000610be28884611c92565b90508551831015610cb2578115610c2f576040517fee8d10810000000000000000000000000000000000000000000000000000000081526004810184905260248101839052604401610513565b858381518110610c4157610c4161429b565b6020026020010151811015610cb2578281878581518110610c6457610c6461429b565b60200260200101516040517ff7dd619f000000000000000000000000000000000000000000000000000000008152600401610513939291909283526020830191909152604082015260600190565b6000610cc089848a51611cab565b905060006018610cd08b87611d17565b0390506000610cdf8b87611d48565b600402820190505b80821015610e64578151601c81901a60020288015162ffffff821691601d1a9060f01c600080610d15888685565b91509150838214610d695760808801516040517fddf5607100000000000000000000000000000000000000000000000000000000815260048101919091526024810183905260448101859052606401610513565b8751821115610dbb57608088015188516040517f2cab6bff0000000000000000000000000000000000000000000000000000000081526004810192909252602482015260448101839052606401610513565b875182900380895260408901511115610e1d57608088015188516040808b015190517f1bc5ab0f000000000000000000000000000000000000000000000000000000008152600481019390935260248301919091526044820152606401610513565b8751810180895260208901511015610e3757875160208901525b6001811115610e4857875160408901525b5050506080850180516001019052505060049190910190610ce7565b610e6e8b87611d61565b836020015114610ec2578260200151610e878c88611d61565b6040517f4d9c18dc00000000000000000000000000000000000000000000000000000000815260048101929092526024820152604401610513565b82518414610f095782516040517f4689f0b3000000000000000000000000000000000000000000000000000000008152600481019190915260248101859052604401610513565b505060019093019250610bc0915050565b50505050505050565b6060806000610f30611d7a565b85519091501561176c578451600090602087810191880101825b818310156116c9576001835160001a1b905060018560e001511660000361125b576f07fffffe8000000000000000000000008116156111035760e085015160021615610feb578883037fffffffffffffffffffffffffffffffffffffffffffffffffffffffffffffffe0015b6040517f5520a51700000000000000000000000000000000000000000000000000000000815260040161051391815260200190565b6f07fffffe0000000000000000000000008116156110975761101d836f07fffffe0000000003ff200000000000611ee9565b9450925060008061102e8787611f9a565b915091508115611090576040517f53e6feba0000000000000000000000000000000000000000000000000000000081527fffffffffffffffffffffffffffffffffffffffffffffffffffffffffffffffe08c8703016004820152602401610513565b50506110b8565b6110b560018401836f07fffffe0000000003ff200000000000612011565b92505b604085018051600190810190915260a086018051909101905260e0850180516022177fffffffffffffffffffffffffffffffffffffffffffffffffffffffffffffffef169052610f4a565b640100002600811615611154576111236001840183640100002600612011565b60e0860180517ffffffffffffffffffffffffffffffffffffffffffffffffffffffffffffffffd1690529250610f4a565b67040000000000000081161561119d5760e0850180516021177fffffffffffffffffffffffffffffffffffffffffffffffffffffffffffffffed16905260019290920191610f4a565b658000000000008116156112315760108560e0015116600003611215578883037fffffffffffffffffffffffffffffffffffffffffffffffffffffffffffffffe0015b6040517fedad0c5800000000000000000000000000000000000000000000000000000000815260040161051391815260200190565b61121f898461203d565b60e08601805160021790529250610f4a565b8883037fffffffffffffffffffffffffffffffffffffffffffffffffffffffffffffffe001610fb6565b6f07fffffe0000000000000000000000008116156113f05760e0850151600216156112db578883037fffffffffffffffffffffffffffffffffffffffffffffffffffffffffffffffe0015b6040517f4e803df600000000000000000000000000000000000000000000000000000000815260040161051391815260200190565b6112f5836f07fffffe0000000003ff200000000000611ee9565b8095508194505050600080613d0e6113138b896101a0015189612149565b92509250925082156113565760006113358961018001518e898563ffffffff16565b9097509050611345898483612215565b5060e08801805160041790526113dd565b6113608888612352565b909350915082156113855761137788600084612215565b611380886123cd565b6113dd565b6040517f81bd48db0000000000000000000000000000000000000000000000000000000081527fffffffffffffffffffffffffffffffffffffffffffffffffffffffffffffffe08d8803016004820152602401610513565b50505060e0850180516002179052610f4a565b60e0850151600416156114e657650100000000008116600003611465576040517f23b5c6ea0000000000000000000000000000000000000000000000000000000081527fffffffffffffffffffffffffffffffffffffffffffffffffffffffffffffffe08a8503016004820152602401610513565b60608501805160001a60030190819053603b8111156114b0576040517f6232f2d900000000000000000000000000000000000000000000000000000000815260040160405180910390fd5b5060e0850180517ffffffffffffffffffffffffffffffffffffffffffffffffffffffffffffffff9169052600190920191610f4a565b650200000000008116156115b7576000606086015160001a905080600003611560576040517f7f9db5420000000000000000000000000000000000000000000000000000000081527fffffffffffffffffffffffffffffffffffffffffffffffffffffffffffffffe08b8603016004820152602401610513565b7ffffffffffffffffffffffffffffffffffffffffffffffffffffffffffffffffd01606086018181538160048201015160001a8260028301015160f01c60010153506115ab866123cd565b50600190920191610f4a565b6401000026008116156115d7576111236001840183640100002600612011565b6703ff00000000000081161561160d576115f2858a85612430565b92506115fd856123cd565b60e0850180516002179052610f4a565b6510000000000081161561163157611626858a85612582565b600190920191610f4a565b6708000000000000008116156116675761164c858a85612582565b61165585612855565b601860e0860152600190920191610f4a565b6580000000000081161561169f578883037fffffffffffffffffffffffffffffffffffffffffffffffffffffffffffffffe0016111e0565b8883037fffffffffffffffffffffffffffffffffffffffffffffffffffffffffffffffe0016112a6565b818314611702576040517f7d565df600000000000000000000000000000000000000000000000000000000815260040160405180910390fd5b60e085015160201615611767576040517ff06f54cf0000000000000000000000000000000000000000000000000000000081527fffffffffffffffffffffffffffffffffffffffffffffffffffffffffffffffe08a8503016004820152602401610513565b505050505b61177581612a97565b61177e82612bcf565b92509250505b9250929050565b6020810680820384015b808510156117b0578451845260209485019490930192611795565b5080156117eb577fffffffffffffffffffffffffffffffffffffffffffffffffffffffffffffffff600882021c808451168119865116178452505b50505050565b815160009081908390811061184957608085015185516040517feaa16f330000000000000000000000000000000000000000000000000000000081526004810192909252602482015260448101829052606401610513565b846040015181111561185d57604085018190525b506000946001945092505050565b600080836060015183106118c557608084015160608501516040517feb7894540000000000000000000000000000000000000000000000000000000081526004810192909252602482015260448101849052606401610513565b5060009360019350915050565b5060009160019150565b60101c9160019150565b600080601083901c806118fa5760016118fc565b805b95600195509350505050565b600080601083901c8061191c57600261191e565b805b905060028106156118fa57806001016118fc565b600080601083901c80611946576001611948565b805b95600095509350505050565b5060029160019150565b5060039160019150565b50600191829150565b600080601083901c600181116118fa5760026118fc565b5060029160009150565b60046001808316019250929050565b60606000825160020267ffffffffffffffff8111156119c2576119c2613d61565b6040519080825280601f01601f1916602001820160405280156119ec576020820181803683370190505b50905061ffff80196020850160208651028101600285015b81831015611a2657805183518616908516178152602090920191600201611a04565b50939695505050505050565b60008060606000805b60ff811015611ab3576000805b8751811015611a7a57600080611a6a858b8581518110610a4557610a4561429b565b5093909317925050600101611a48565b506000611a8682611b82565b905083811115611a9a578093508296508195505b87518103611aa9575050611ab3565b5050600101611a3b565b5084516040805192909103808352600101602002820190529050600080805b8651811015611b5657600080611af78860ff168a8581518110610a4557610a4561429b565b91509150848216600003611b0e5793811793611b4c565b888381518110611b2057611b2061429b565b6020026020010151868581518110611b3a57611b3a61429b565b60209081029190910101526001909301925b5050600101611ad2565b5050509193909250565b60008082600052836020536021600020905060018160001a1b91509250929050565b60007fffffffffffffffffffffffffffffffffffffffffffffffffffffffffffffffff8203611bb45750610100919050565b507f0f0f0f0f0f0f0f0f0f0f0f0f0f0f0f0f0f0f0f0f0f0f0f0f0f0f0f0f0f0f0f0f7f5555555555555555555555555555555555555555555555555555555555555555600183901c16909103600281901c7f3333333333333333333333333333333333333333333333333333333333333333908116911601600481901c01167f01010101010101010101010101010101010101010101010101010101010101010260f81c90565b60008151600003611c6e57506000919050565b506020015160001a90565b600080611c868484611d17565b5160021a949350505050565b600080611c9f8484611d17565b5160031a949350505050565b611ce46040518060c001604052806000815260200160008152602001600081526020016000815260200160008152602001606081525090565b506040805160c081018252838152602081018490529081019290925260608201526000608082015260a081019190915290565b600080611d2384611c5b565b60020260010190506000611d378585612c44565b949091019093016020019392505050565b600080611d558484611d17565b5160001a949350505050565b600080611d6e8484611d17565b5160011a949350505050565b611df3604051806101e001604052806000815260200160008152602001600081526020016000815260200160008152602001600081526020016000815260200160008152602001600081526020016000815260200160008152602001600081526020016000815260200160008152602001600081525090565b6000604051806101e00160405280600081526020016000815260200160008152602001600081526020016000815260200160008152602001600081526020016010600817815260200160008152602001600081526020016000815260200160008152602001611e6861333c60101b6130901790565b8152602001611e92613a7360401b61390260301b6137a660201b61369860101b6135fb1717171790565b8152600060209182018190526040805183815280840182528452918301819052908201819052606082018190526080820181905260a08201819052610100820181905261012082018190526101c082015292915050565b8151600090819060015b8419600183831a1b1615602082101615611f0f57600101611ef3565b9485019460208190036008810292831c90921b91611f9157604080516020810184905201604080517fffffffffffffffffffffffffffffffffffffffffffffffffffffffffffffffe0818403018152908290527fe47fe8b700000000000000000000000000000000000000000000000000000000825261051391600401614024565b50939492505050565b600080611fa78484612352565b90925090508161178457506101008301805160408051948552602080862092865285018152909401517fffffffffffffffffffffffffffffffffffffffffffffffffffffffff00000000909416601085901b62ff000016179092179091529160ff90911660010190565b60005b6000826001865160001a1b1611838510161561203557600184019350612014565b509192915050565b805160009060f01c612f2a81146120a6576040517f3e47169c0000000000000000000000000000000000000000000000000000000081527fffffffffffffffffffffffffffffffffffffffffffffffffffffffffffffffe0858503016004820152602401610513565b835160029390930192602a90602f90860160200160005b80612103575b81871084885160001a141516156120df576001870196506120c3565b6001870196508187101583885160001a1417156120fe57506001958601955b6120bd565b508086111561213e576040517f7d565df600000000000000000000000000000000000000000000000000000000815260040160405180910390fd5b509395945050505050565b600183810180516000928392613d0e92602160ff909116028801600681019201845b81831015612201576001830151602190930180519093600090819060ff168180612195838f611b60565b915091506000876121aa600185038916611b82565b016005028b015195505062ffffff90811693508416830391506121ec9050575060019850601b81901a9750601c1a8a901c61ffff169550610473945050505050565b6121f583611b82565b8401935050505061216b565b506000998a99508998509650505050505050565b61221e83612cbc565b60e08301805160207ffffffffffffffffffffffffffffffffffffffffffffffffffffffffffffffff79190911681179091528301516021600091821a850101805190911a600101815350825180516060850151600090811a86016061018051929361ffff85169360088504909103601c0192600191901a018153600060038201537fffffffffffffffffffffffffffffffffffffffffffffffffffffffffffffffe30180517fffffffffffffffffffffffffffffffffffffffffffffffffffffffffffff00001690911790528451602090920183821b176018820185901b179182905260e081900361234b578451604080518088526020601084901b81178252810190915281517fffffffffffffffffffffffffffffffffffffffffffffffffffffffffffff0000161790525b5050505050565b61010082015161012083015160008381526020808220919384939290911c91600160ff84161b808216156123b85761ffff83165b80156123b6578360201c85036123a9576001965061ffff8460101c1695506123b6565b51925061ffff8316612386565b505b17610120909601959095525090939092509050565b6000606082015160001a90508060000361242c5760208201805160001a600101908181535080603f0361056b576040517fa25cba3100000000000000000000000000000000000000000000000000000000815260040160405180910390fd5b5050565b6000613d0e600080600061244a8861018001518888612d06565b8981038a206101408d015194985092965090945092507fffffffffffffffffffffffffffffffffffffffffffffffffffffffffffff000016906001600083811a82901b929091908316156124f0576101608c015160101c5b80156124ee5780517fffffffffffffffffffffffffffffffffffffffffffffffffffffffffffff0000811686036124dd5760019350506124ee565b505160019091019061ffff166124a2565b505b6101608c015161ffff1661251660018461250a578261250e565b8383035b8f9190612215565b508161257257604080518082019091526101608d015160101c8517815260006125448d8a8a63ffffffff8e16565b6020830152506101608d018051600161ffff9091160160109290921b9190911790526101408c018051841790525b50929a9950505050505050505050565b606083015160001a80156125e8576040517f6fb11cdc0000000000000000000000000000000000000000000000000000000081527fffffffffffffffffffffffffffffffffffffffffffffffffffffffffffffffe0848403016004820152602401610513565b506125f283612cbc565b60e083018051603060089182161790915260a0840151602085015160ff8083169360f89290921c9290911c16810360008190036126bb5760088660e0015116600003612690576040517fab1d3ea70000000000000000000000000000000000000000000000000000000081527fffffffffffffffffffffffffffffffffffffffffffffffffffffffffffffffe0868603016004820152602401610513565b90820160f881901b60208701526101c08601519091906126b09084612fc9565b6101c0870152612784565b60018111156127845780831015612724576040517f78ef27820000000000000000000000000000000000000000000000000000000081527fffffffffffffffffffffffffffffffffffffffffffffffffffffffffffffffe0868603016004820152602401610513565b80831115612784576040517f43168e680000000000000000000000000000000000000000000000000000000081527fffffffffffffffffffffffffffffffffffffffffffffffffffffffffffffffe0868603016004820152602401610513565b8082036001016020601083028101905b818110156128405760a08901516020848b01015190821c61ffff169060001a60015b81811161282f5760208306601c036127cf57915160f01c915b82516101c08d015160019190911a906127e89082613011565b6101c08e015261281982841480156128005750886001145b61280b57600161280d565b8a5b6101c08f015190613058565b6101c08e015250600492909201916001016127b6565b505060019093019250601001612794565b5050505060081b60a090940193909352505050565b60c0810151602082015160f082811c9160001a600101908290036128a5576040517fa806284100000000000000000000000000000000000000000000000000000000815260040160405180910390fd5b600080856101c001519050855161ffff815160101c165b80156128d357805190915060101c61ffff166128bc565b50604051602188018051919450601c830192916004916024870191600090811a805b8a8310156129bb5760048202860195506004878903045b8082111561292a57965161ffff16601c81019850969003600761290c565b506004810297889003805186529794909401938103865b6007821115612986575160101c61ffff1680518652601c909501947ffffffffffffffffffffffffffffffffffffffffffffffffffffffffffffffff990910190612941565b81156129a1575160101c61ffff168051865260048202909501945b505050600191820180519092919091019060001a806128f5565b50505050818652600486019350846001600484040360181b1763ffffffff19855116178452601f19601f820116604052505050506001846001901b612a0091906142f9565b851682851b60f0612a1287601061430c565b901b171760c087015260e0860180517fffffffffffffffffffffffffffffffffffffffffffffffffffffffffffffffdf16905260408051602080825280820183529088526000908801819052908701819052606087018190526080870181905260a08701819052610100870181905261012087018190526101c0870152505050505050565b60c08101518151516060919060f082901c9060208114612ae3576040517f858f2dcf00000000000000000000000000000000000000000000000000000000815260040160405180910390fd5b604051935060208401601083046000818353506001600885048301810192839101600080805b88811015612b425789811c61ffff81165163ffff0000601092831b16811760e01b8786015284019360f08390031b929092179101612b09565b50825117909152878203017fffffffffffffffffffffffffffffffffffffffffffffffffffffffffffffffe08181018952908801601f011660405260005b82811015612bc3576002810288016003015161ffff90811683018051602060f082901c019260e09190911c1690612bb883828461178b565b505050600101612b80565b50505050505050919050565b6101608101516040805161ffff8316808252602080820283019081019093529092909160109190911c90835b80821115612c3b5760208301518252915161ffff16917fffffffffffffffffffffffffffffffffffffffffffffffffffffffffffffffe090910190612bfb565b50505050919050565b6002810282016003015161ffff166000612c5d84611c5b565b845190915060056002830284010190811180612c795750818410155b15612cb45784846040517fd3fc97bd00000000000000000000000000000000000000000000000000000000815260040161051392919061431f565b505092915050565b60208101805160001a6001810182015160001a61056b578251805160a085018051600861ffff939093169290920460200390920160106001601e84901a860301021b179052505050565b8051613d0e9060009081908190600181831a1b6703ff000000000000811615612f2857600182811a1b7ffffffffffffffffffffffffffffffffffeffffffffffffffffff00000000000082821701612de25760028801806c7e0000007e03ff0000000000005b806001835160001a1b1615612d8657600182019150612d6c565b508a5161ffff8d16908c0160200180831115612dce576040517f7d565df600000000000000000000000000000000000000000000000000000000815260040160405180910390fd5b5098509096509450849350612fc092505050565b876001810160006703ff0000000000006c200000002000000000000000005b816001855160001a1b1615612e1b57600184019350612e01565b806001855160001a1b1615612e4c57600184019392505b816001855160001a1b1615612e4c57600184019350612e32565b50508015801590612e6b575080600301821180612e6b57508060010182145b15612ec8576040517f013b2aaa0000000000000000000000000000000000000000000000000000000081527fffffffffffffffffffffffffffffffffffffffffffffffffffffffffffffffe08d8303016004820152602401610513565b8b5161ffff60108f901c16908d0160200180841115612f13576040517f7d565df600000000000000000000000000000000000000000000000000000000815260040160405180910390fd5b5099509197509550859450612fc09350505050565b87518801602001808810612f68576040517f7d565df600000000000000000000000000000000000000000000000000000000815260040160405180910390fd5b6040517fb0e4e5b30000000000000000000000000000000000000000000000000000000081527fffffffffffffffffffffffffffffffffffffffffffffffffffffffffffffffe08a8a03016004820152602401610513565b93509350935093565b6000612fd58383613058565b9250507fffffffffffffffffffffffffffffffffffffffffffffffffffffffffffff00ff821660ff600884811c919091168301901b1792915050565b600060ff831682811015613051576040517f04671d0000000000000000000000000000000000000000000000000000000000815260040160405180910390fd5b5050900390565b600060ff808416830190600885901c16601085901c808311156130785750815b601081901b600883901b841717935050505092915050565b600082820360408111156130f6576040517fff2f59490000000000000000000000000000000000000000000000000000000081527fffffffffffffffffffffffffffffffffffffffffffffffffffffffffffffffe0868603016004820152602401610513565b80600003613156576040517fc75cd5090000000000000000000000000000000000000000000000000000000081527fffffffffffffffffffffffffffffffffffffffffffffffffffffffffffffffe0868603016004820152602401610513565b600281066001036131b9576040517fd76d9b570000000000000000000000000000000000000000000000000000000081527fffffffffffffffffffffffffffffffffffffffffffffffffffffffffffffffe0868603016004820152602401610513565b7fffffffffffffffffffffffffffffffffffffffffffffffffffffffffffffffff830160005b858210613332578151600090811a906001821b906703ff00000000000082161561322c57507fffffffffffffffffffffffffffffffffffffffffffffffffffffffffffffffd082016132fc565b6c7e00000000000000000000000082161561326a57507fffffffffffffffffffffffffffffffffffffffffffffffffffffffffffffffa982016132fc565b687e00000000000000008216156132a457507fffffffffffffffffffffffffffffffffffffffffffffffffffffffffffffffc982016132fc565b6040517f69f1e3e60000000000000000000000000000000000000000000000000000000081527fffffffffffffffffffffffffffffffffffffffffffffffffffffffffffffffe08b8703016004820152602401610513565b831b959095179450507fffffffffffffffffffffffffffffffffffffffffffffffffffffffffffffffff909101906004016131df565b5050509392505050565b7ffffffffffffffffffffffffffffffffffffffffffffffffffffffffffffffffd8101516000908190603090829080821a87870360038111801561339157506001821b6c200000002000000000000000001615155b156133b357600488039550600a858460011a0302858460021a0301935061345f565b8260011a91506002811180156133da57506001821b6c200000002000000000000000001615155b156133f257600388039550848360021a03935061345f565b8015613407576001880395506000935061345f565b6040517ffa65827e0000000000000000000000000000000000000000000000000000000081527fffffffffffffffffffffffffffffffffffffffffffffffffffffffffffffffe08b8b03016004820152602401610513565b5050505b8583101580156134735750604d81105b156134b857825160001a829003600a82900a0293909301927fffffffffffffffffffffffffffffffffffffffffffffffffffffffffffffffff90920191600101613463565b85831061333257825160001a829003600181111561352b578784037fffffffffffffffffffffffffffffffffffffffffffffffffffffffffffffffe0015b6040517f8f2b5ffd00000000000000000000000000000000000000000000000000000000815260040161051391815260200190565b600a82900a8102858101861115613566578885037fffffffffffffffffffffffffffffffffffffffffffffffffffffffffffffffe0016134f6565b9490940193507fffffffffffffffffffffffffffffffffffffffffffffffffffffffffffffffff909201915b85831061333257825160001a603081146135d0578784037fffffffffffffffffffffffffffffffffffffffffffffffffffffffffffffffe0016134f6565b507fffffffffffffffffffffffffffffffffffffffffffffffffffffffffffffffff90920191613592565b80516000908190600190821a1b7ffffffffffffffffffffffffffffffffffffffffffffffffff0000000000000008101613687576040517ff8216c550000000000000000000000000000000000000000000000000000000081527fffffffffffffffffffffffffffffffffffffffffffffffffffffffffffffffe0868603016004820152602401610513565b83600092509250505b935093915050565b815181516000918291600190831a1b9085016020017ffffffffffffffffffffffffffffffffffffffffffffffffff0000000000000008201613798576136e76001860182640100002600612011565b945060006136f9888861ffff89613c11565b909650905061370e8683640100002600612011565b8051909650600160009190911a1b92506740000000000000008314613788578686037fffffffffffffffffffffffffffffffffffffffffffffffffffffffffffffffe0015b6040517f722cd24a00000000000000000000000000000000000000000000000000000000815260040161051391815260200190565b6001860194509250613690915050565b846000935093505050613690565b815181516000918291600190831a1b9085016020017ffffffffffffffffffffffffffffffffffffffffffffffffff00000000000000082016138a7576137f56001860182640100002600612011565b94506000613806888860ff89613c11565b90965090508061381c8784640100002600612011565b9650600061382d8a8a60ff8b613c11565b909850600881901b9290921791905061384c8885640100002600612011565b8051909850600160009190911a1b94506740000000000000008514613895578888037fffffffffffffffffffffffffffffffffffffffffffffffffffffffffffffffe001613753565b50600187019550935061369092505050565b8585037fffffffffffffffffffffffffffffffffffffffffffffffffffffffffffffffe0015b6040517f24027dc400000000000000000000000000000000000000000000000000000000815260040161051391815260200190565b815181516000918291600190831a1b9085016020017ffffffffffffffffffffffffffffffffffffffffffffffffff0000000000000008201613798576139516001860182640100002600612011565b80519095506001600091821a1b92507fffffffffffffffffffffffffffffffffffffffffffffffffc000000000000000830161398f575060006139b4565b61399c8888600189613c11565b90965090506139b18683640100002600612011565b95505b85516001600091821a1b93507fffffffffffffffffffffffffffffffffffffffffffffffffc00000000000000084016139ef57506000613a14565b6139fc898960018a613c11565b9097509050613a118784640100002600612011565b96505b8651600160009190911a81901b945081901b82176740000000000000008514613a61578888037fffffffffffffffffffffffffffffffffffffffffffffffffffffffffffffffe001613753565b60018801965094506136909350505050565b815181516000918291600190831a1b9085016020017ffffffffffffffffffffffffffffffffffffffffffffffffff00000000000000082016138a757613ac26001860182640100002600612011565b94506000613ad3888860ff89613c11565b9096509050613ae88683640100002600612011565b80519096506001600091821a1b93507fffffffffffffffffffffffffffffffffffffffffffffffffc0000000000000008401613b2657506000613b4b565b613b33898960018a613c11565b9097509050613b488784640100002600612011565b96505b86516001600091821a1b94507fffffffffffffffffffffffffffffffffffffffffffffffffc0000000000000008501613b8657506000613bab565b613b938a8a60018b613c11565b9098509050613ba88885640100002600612011565b97505b8751600160009190911a1b9450600882901b8317600982901b176740000000000000008614613bfe578989037fffffffffffffffffffffffffffffffffffffffffffffffffffffffffffffffe001613753565b6001890197509550613690945050505050565b80516000908190600190821a1b7fffffffffffffffffffffffffffffffffffffffffffffffffc0000000000000008101613c6f578584037fffffffffffffffffffffffffffffffffffffffffffffffffffffffffffffffe0016138cd565b613d0e6000806000613c828b8b8a612d06565b93509350935093506000613c9b8b85858863ffffffff16565b905089811115613cfd576040517f7480c7840000000000000000000000000000000000000000000000000000000081527fffffffffffffffffffffffffffffffffffffffffffffffffffffffffffffffe08c8b03016004820152602401610513565b909b909a5098505050505050505050565b613d16614341565b565b600060208284031215613d2a57600080fd5b81357fffffffff0000000000000000000000000000000000000000000000000000000081168114613d5a57600080fd5b9392505050565b7f4e487b7100000000000000000000000000000000000000000000000000000000600052604160045260246000fd5b6040516060810167ffffffffffffffff81118282101715613db357613db3613d61565b60405290565b604051601f82017fffffffffffffffffffffffffffffffffffffffffffffffffffffffffffffffe016810167ffffffffffffffff81118282101715613e0057613e00613d61565b604052919050565b600067ffffffffffffffff821115613e2257613e22613d61565b50601f017fffffffffffffffffffffffffffffffffffffffffffffffffffffffffffffffe01660200190565b600082601f830112613e5f57600080fd5b8135613e72613e6d82613e08565b613db9565b818152846020838601011115613e8757600080fd5b816020850160208301376000918101602001919091529392505050565b600067ffffffffffffffff821115613ebe57613ebe613d61565b5060051b60200190565b600082601f830112613ed957600080fd5b81356020613ee9613e6d83613ea4565b82815260059290921b84018101918181019086841115613f0857600080fd5b8286015b84811015613f235780358352918301918301613f0c565b509695505050505050565b600080600060608486031215613f4357600080fd5b833567ffffffffffffffff80821115613f5b57600080fd5b613f6787838801613e4e565b94506020860135915080821115613f7d57600080fd5b613f8987838801613ec8565b93506040860135915080821115613f9f57600080fd5b50613fac86828701613ec8565b9150509250925092565b60005b83811015613fd1578181015183820152602001613fb9565b50506000910152565b60008151808452613ff2816020860160208601613fb6565b601f017fffffffffffffffffffffffffffffffffffffffffffffffffffffffffffffffe0169290920160200192915050565b602081526000613d5a6020830184613fda565b60006020828403121561404957600080fd5b813567ffffffffffffffff81111561406057600080fd5b61053f84828501613e4e565b600081518084526020808501945080840160005b8381101561409c57815187529582019590820190600101614080565b509495945050505050565b6040815260006140ba6040830185613fda565b82810360208401526140cc818561406c565b95945050505050565b73ffffffffffffffffffffffffffffffffffffffff851681526080602082015260006141046080830186613fda565b8281036040840152614116818661406c565b9050828103606084015261412a818561406c565b979650505050505050565b6000602080838503121561414857600080fd5b825167ffffffffffffffff8082111561416057600080fd5b818501915085601f83011261417457600080fd5b8151614182613e6d82613ea4565b81815260059190911b830184019084810190888311156141a157600080fd5b8585015b8381101561428e578051858111156141bd5760008081fd5b86016060818c037fffffffffffffffffffffffffffffffffffffffffffffffffffffffffffffffe0018113156141f35760008081fd5b6141fb613d90565b89830151815260408084015160ff811681146142175760008081fd5b828c015291830151918883111561422e5760008081fd5b82840193508d603f85011261424557600092508283fd5b8a8401519250614257613e6d84613e08565b8381528e8285870101111561426c5760008081fd5b61427b848d8301848801613fb6565b90820152855250509186019186016141a5565b5098975050505050505050565b7f4e487b7100000000000000000000000000000000000000000000000000000000600052603260045260246000fd5b7f4e487b7100000000000000000000000000000000000000000000000000000000600052601160045260246000fd5b818103818111156102cf576102cf6142ca565b808201808211156102cf576102cf6142ca565b6040815260006143326040830185613fda565b90508260208301529392505050565b7f4e487b7100000000000000000000000000000000000000000000000000000000600052605160045260246000fdfe17f1186b18d218dc18d218d218d218d218d218e619081932195418e619541954195e196819541954197119711954196819681971197119711971197119711971197119711971197119711968198819921992010f00c20804b001180500014014144080040101008082020092020040a100148024163082aae700108f616d2200e3c6181b0025fdfc2100a1cef21c00e7762b2500229a7e0b103e260a0600ce656d0220f12be70c0035f0270900da2bcc14001874cb0700319e1e2300c17cd61100d0684c05007c4b951f000859681e00ce62340d0021f48512009046c219008710c503002c340815002eaa701740b3357a1a00e6d3420800f0dfe2040080a95b0e004e5b480a107012321840438b4b24008a3266281043e2f6011056328a1d00ec53cd0f006e69fa1000ac8cde2600f2c1681300b8577627103fa0c82000c6ff510c590ca50ce00dc40dfe0e2d0e5c0e5c0eab0eda0f3c0fc4106b107f10d510e910fe111811231137114c11c91214123a125c1273127312be130913541354139f139f13ea14351480148014cb15b215e5163c",
    "linkReferences": {}
  },
  "methodIdentifiers": {
    "authoringMetaHash()": "b6c7175a",
    "buildParseMeta(bytes)": "a600bd0a",
    "deployExpression(bytes,uint256[],uint256[])": "31a66b65",
    "iInterpreter()": "f0cfdd37",
    "iStore()": "c19423bc",
    "integrityCheck(bytes,uint256[],uint256[])": "cbb7d173",
    "integrityFunctionPointers()": "8d614591",
    "parse(bytes)": "fab4087a",
    "parseMeta()": "ffc25704",
    "supportsInterface(bytes4)": "01ffc9a7"
  },
  "id": 80
}