{
  "abi": [
    {
      "inputs": [
        {
          "internalType": "uint256",
          "name": "length",
          "type": "uint256"
        }
      ],
      "name": "RainterpreterStoreOddSetLength",
      "type": "error"
    },
    {
      "inputs": [
        {
          "internalType": "FullyQualifiedNamespace",
          "name": "namespace",
          "type": "uint256"
        },
        {
          "internalType": "uint256",
          "name": "key",
          "type": "uint256"
        }
      ],
      "name": "get",
      "outputs": [
        {
          "internalType": "uint256",
          "name": "",
          "type": "uint256"
        }
      ],
      "stateMutability": "view",
      "type": "function"
    },
    {
      "inputs": [
        {
          "internalType": "StateNamespace",
          "name": "namespace",
          "type": "uint256"
        },
        {
          "internalType": "uint256[]",
          "name": "kvs",
          "type": "uint256[]"
        }
      ],
      "name": "set",
      "outputs": [],
      "stateMutability": "nonpayable",
      "type": "function"
    },
    {
      "inputs": [
        {
          "internalType": "bytes4",
          "name": "interfaceId",
          "type": "bytes4"
        }
      ],
      "name": "supportsInterface",
      "outputs": [
        {
          "internalType": "bool",
          "name": "",
          "type": "bool"
        }
      ],
      "stateMutability": "view",
      "type": "function"
    }
  ],
  "bytecode": {
    "object": "0x608060405234801561001057600080fd5b50610372806100206000396000f3fe608060405234801561001057600080fd5b50600436106100415760003560e01c806301ffc9a714610046578063669e48aa1461006e578063946aadc6146100a5575b600080fd5b61005961005436600461021e565b6100ba565b60405190151581526020015b60405180910390f35b61009761007c366004610267565b60009182526020828152604080842092845291905290205490565b604051908152602001610065565b6100b86100b3366004610289565b610153565b005b60007fffffffff0000000000000000000000000000000000000000000000000000000082167ff2f4e56c00000000000000000000000000000000000000000000000000000000148061014d57507f01ffc9a7000000000000000000000000000000000000000000000000000000007fffffffff000000000000000000000000000000000000000000000000000000008316145b92915050565b61015e600282610308565b1561019c576040517f042a603d0000000000000000000000000000000000000000000000000000000081526004810182905260240160405180910390fd5b60008381523360205260408120905b82811015610217578383826001018181106101c8576101c8610343565b9050602002013560008084815260200190815260200160002060008686858181106101f5576101f5610343565b60209081029290920135835250810191909152604001600020556002016101ab565b5050505050565b60006020828403121561023057600080fd5b81357fffffffff000000000000000000000000000000000000000000000000000000008116811461026057600080fd5b9392505050565b6000806040838503121561027a57600080fd5b50508035926020909101359150565b60008060006040848603121561029e57600080fd5b83359250602084013567ffffffffffffffff808211156102bd57600080fd5b818601915086601f8301126102d157600080fd5b8135818111156102e057600080fd5b8760208260051b85010111156102f557600080fd5b6020830194508093505050509250925092565b60008261033e577f4e487b7100000000000000000000000000000000000000000000000000000000600052601260045260246000fd5b500690565b7f4e487b7100000000000000000000000000000000000000000000000000000000600052603260045260246000fd",
    "linkReferences": {}
  },
  "methodIdentifiers": {
    "get(uint256,uint256)": "669e48aa",
    "set(uint256,uint256[])": "946aadc6",
    "supportsInterface(bytes4)": "01ffc9a7"
  },
  "id": 82
}